{
  "contractName": "blockporb",
  "abi": [
    {
      "inputs": [],
      "stateMutability": "nonpayable",
      "type": "constructor"
    },
    {
      "anonymous": false,
      "inputs": [
        {
          "indexed": true,
          "internalType": "address",
          "name": "owner",
          "type": "address"
        },
        {
          "indexed": true,
          "internalType": "address",
          "name": "approved",
          "type": "address"
        },
        {
          "indexed": true,
          "internalType": "uint256",
          "name": "tokenId",
          "type": "uint256"
        }
      ],
      "name": "Approval",
      "type": "event"
    },
    {
      "anonymous": false,
      "inputs": [
        {
          "indexed": true,
          "internalType": "address",
          "name": "owner",
          "type": "address"
        },
        {
          "indexed": true,
          "internalType": "address",
          "name": "operator",
          "type": "address"
        },
        {
          "indexed": false,
          "internalType": "bool",
          "name": "approved",
          "type": "bool"
        }
      ],
      "name": "ApprovalForAll",
      "type": "event"
    },
    {
      "anonymous": false,
      "inputs": [
        {
          "indexed": true,
          "internalType": "address",
          "name": "from",
          "type": "address"
        },
        {
          "indexed": true,
          "internalType": "address",
          "name": "to",
          "type": "address"
        },
        {
          "indexed": true,
          "internalType": "uint256",
          "name": "tokenId",
          "type": "uint256"
        }
      ],
      "name": "Transfer",
      "type": "event"
    },
    {
      "inputs": [
        {
          "internalType": "address",
          "name": "to",
          "type": "address"
        },
        {
          "internalType": "uint256",
          "name": "tokenId",
          "type": "uint256"
        }
      ],
      "name": "approve",
      "outputs": [],
      "stateMutability": "nonpayable",
      "type": "function"
    },
    {
      "inputs": [
        {
          "internalType": "uint256",
          "name": "tokenId",
          "type": "uint256"
        }
      ],
      "name": "getApproved",
      "outputs": [
        {
          "internalType": "address",
          "name": "",
          "type": "address"
        }
      ],
      "stateMutability": "view",
      "type": "function"
    },
    {
      "inputs": [
        {
          "internalType": "uint256",
          "name": "",
          "type": "uint256"
        }
      ],
      "name": "idToProperties",
      "outputs": [
        {
          "internalType": "uint128",
          "name": "x",
          "type": "uint128"
        },
        {
          "internalType": "uint128",
          "name": "y",
          "type": "uint128"
        },
        {
          "internalType": "uint128",
          "name": "size",
          "type": "uint128"
        },
        {
          "internalType": "address",
          "name": "owner",
          "type": "address"
        },
        {
          "internalType": "uint256",
          "name": "propertyID",
          "type": "uint256"
        }
      ],
      "stateMutability": "view",
      "type": "function"
    },
    {
      "inputs": [
        {
          "internalType": "address",
          "name": "owner",
          "type": "address"
        },
        {
          "internalType": "address",
          "name": "operator",
          "type": "address"
        }
      ],
      "name": "isApprovedForAll",
      "outputs": [
        {
          "internalType": "bool",
          "name": "",
          "type": "bool"
        }
      ],
      "stateMutability": "view",
      "type": "function"
    },
    {
      "inputs": [],
      "name": "name",
      "outputs": [
        {
          "internalType": "string",
          "name": "",
          "type": "string"
        }
      ],
      "stateMutability": "view",
      "type": "function"
    },
    {
      "inputs": [
        {
          "internalType": "address",
          "name": "",
          "type": "address"
        },
        {
          "internalType": "uint256",
          "name": "",
          "type": "uint256"
        }
      ],
      "name": "ownerToPropertyList",
      "outputs": [
        {
          "internalType": "uint256",
          "name": "",
          "type": "uint256"
        }
      ],
      "stateMutability": "view",
      "type": "function"
    },
    {
      "inputs": [
        {
          "internalType": "address",
          "name": "from",
          "type": "address"
        },
        {
          "internalType": "address",
          "name": "to",
          "type": "address"
        },
        {
          "internalType": "uint256",
          "name": "tokenId",
          "type": "uint256"
        }
      ],
      "name": "safeTransferFrom",
      "outputs": [],
      "stateMutability": "nonpayable",
      "type": "function"
    },
    {
      "inputs": [
        {
          "internalType": "address",
          "name": "from",
          "type": "address"
        },
        {
          "internalType": "address",
          "name": "to",
          "type": "address"
        },
        {
          "internalType": "uint256",
          "name": "tokenId",
          "type": "uint256"
        },
        {
          "internalType": "bytes",
          "name": "data",
          "type": "bytes"
        }
      ],
      "name": "safeTransferFrom",
      "outputs": [],
      "stateMutability": "nonpayable",
      "type": "function"
    },
    {
      "inputs": [
        {
          "internalType": "address",
          "name": "operator",
          "type": "address"
        },
        {
          "internalType": "bool",
          "name": "approved",
          "type": "bool"
        }
      ],
      "name": "setApprovalForAll",
      "outputs": [],
      "stateMutability": "nonpayable",
      "type": "function"
    },
    {
      "inputs": [
        {
          "internalType": "bytes4",
          "name": "interfaceId",
          "type": "bytes4"
        }
      ],
      "name": "supportsInterface",
      "outputs": [
        {
          "internalType": "bool",
          "name": "",
          "type": "bool"
        }
      ],
      "stateMutability": "view",
      "type": "function"
    },
    {
      "inputs": [],
      "name": "symbol",
      "outputs": [
        {
          "internalType": "string",
          "name": "",
          "type": "string"
        }
      ],
      "stateMutability": "view",
      "type": "function"
    },
    {
      "inputs": [
        {
          "internalType": "uint256",
          "name": "tokenId",
          "type": "uint256"
        }
      ],
      "name": "tokenURI",
      "outputs": [
        {
          "internalType": "string",
          "name": "",
          "type": "string"
        }
      ],
      "stateMutability": "view",
      "type": "function"
    },
    {
      "inputs": [
        {
          "internalType": "address",
          "name": "from",
          "type": "address"
        },
        {
          "internalType": "address",
          "name": "to",
          "type": "address"
        },
        {
          "internalType": "uint256",
          "name": "tokenId",
          "type": "uint256"
        }
      ],
      "name": "transferFrom",
      "outputs": [],
      "stateMutability": "nonpayable",
      "type": "function"
    },
    {
      "inputs": [],
      "name": "maxSize",
      "outputs": [
        {
          "internalType": "uint128",
          "name": "",
          "type": "uint128"
        }
      ],
      "stateMutability": "view",
      "type": "function"
    },
    {
      "inputs": [
        {
          "components": [
            {
              "internalType": "uint128",
              "name": "x",
              "type": "uint128"
            },
            {
              "internalType": "uint128",
              "name": "y",
              "type": "uint128"
            },
            {
              "internalType": "uint128",
              "name": "size",
              "type": "uint128"
            },
            {
              "internalType": "address",
              "name": "owner",
              "type": "address"
            },
            {
              "internalType": "uint256",
              "name": "propertyID",
              "type": "uint256"
            }
          ],
          "internalType": "struct blockporb.Property",
          "name": "prob",
          "type": "tuple"
        }
      ],
      "name": "getId",
      "outputs": [
        {
          "internalType": "uint256",
          "name": "",
          "type": "uint256"
        }
      ],
      "stateMutability": "nonpayable",
      "type": "function"
    },
    {
      "inputs": [
        {
          "internalType": "address",
          "name": "_owner",
          "type": "address"
        }
      ],
      "name": "areaBalanceOf",
      "outputs": [
        {
          "internalType": "uint256",
          "name": "",
          "type": "uint256"
        }
      ],
      "stateMutability": "view",
      "type": "function"
    },
    {
      "inputs": [
        {
          "internalType": "address",
          "name": "_owner",
          "type": "address"
        }
      ],
      "name": "balanceOf",
      "outputs": [
        {
          "internalType": "uint256",
          "name": "",
          "type": "uint256"
        }
      ],
      "stateMutability": "view",
      "type": "function"
    },
    {
      "inputs": [
        {
          "internalType": "uint256",
          "name": "_tokenId",
          "type": "uint256"
        }
      ],
      "name": "ownerOf",
      "outputs": [
        {
          "internalType": "address",
          "name": "",
          "type": "address"
        }
      ],
      "stateMutability": "view",
      "type": "function"
    }
  ],
  "bytecode": "0x60806040523480156200001157600080fd5b506040518060400160405280600881526020017f48656c6c6f4e66740000000000000000000000000000000000000000000000008152506040518060400160405280600481526020017f484e46540000000000000000000000000000000000000000000000000000000081525081600090816200008f9190620006de565b508060019081620000a19190620006de565b50505060006040518060a0016040528060006fffffffffffffffffffffffffffffffff16815260200160006fffffffffffffffffffffffffffffffff168152602001620000f36200014660201b60201c565b6fffffffffffffffffffffffffffffffff1681526020013373ffffffffffffffffffffffffffffffffffffffff168152602001600081525090506200013f81336200015e60201b60201c565b5062000861565b60006fffffffffffffffffffffffffffffffff905090565b80826060019073ffffffffffffffffffffffffffffffffffffffff16908173ffffffffffffffffffffffffffffffffffffffff16815250506000620001a9836200039260201b60201c565b9050826006600083815260200190815260200160002060008201518160000160006101000a8154816fffffffffffffffffffffffffffffffff02191690836fffffffffffffffffffffffffffffffff16021790555060208201518160000160106101000a8154816fffffffffffffffffffffffffffffffff02191690836fffffffffffffffffffffffffffffffff16021790555060408201518160010160006101000a8154816fffffffffffffffffffffffffffffffff02191690836fffffffffffffffffffffffffffffffff16021790555060608201518160020160006101000a81548173ffffffffffffffffffffffffffffffffffffffff021916908373ffffffffffffffffffffffffffffffffffffffff160217905550608082015181600301559050506000600760008473ffffffffffffffffffffffffffffffffffffffff1673ffffffffffffffffffffffffffffffffffffffff16815260200190815260200160002090508082908060018154018082558091505060019003906000526020600020016000909190919091505580600760008573ffffffffffffffffffffffffffffffffffffffff1673ffffffffffffffffffffffffffffffffffffffff1681526020019081526020016000209080546200038b929190620003ee565b5050505050565b600080620003a56200014660201b60201c565b8360200151620003b6919062000810565b6fffffffffffffffffffffffffffffffff16905082600001516fffffffffffffffffffffffffffffffff168116905080915050919050565b828054828255906000526020600020908101928215620004325760005260206000209182015b828111156200043157825482559160010191906001019062000414565b5b50905062000441919062000445565b5090565b5b808211156200046057600081600090555060010162000446565b5090565b600081519050919050565b7f4e487b7100000000000000000000000000000000000000000000000000000000600052604160045260246000fd5b7f4e487b7100000000000000000000000000000000000000000000000000000000600052602260045260246000fd5b60006002820490506001821680620004e657607f821691505b602082108103620004fc57620004fb6200049e565b5b50919050565b60008190508160005260206000209050919050565b60006020601f8301049050919050565b600082821b905092915050565b600060088302620005667fffffffffffffffffffffffffffffffffffffffffffffffffffffffffffffffff8262000527565b62000572868362000527565b95508019841693508086168417925050509392505050565b6000819050919050565b6000819050919050565b6000620005bf620005b9620005b3846200058a565b62000594565b6200058a565b9050919050565b6000819050919050565b620005db836200059e565b620005f3620005ea82620005c6565b84845462000534565b825550505050565b600090565b6200060a620005fb565b62000617818484620005d0565b505050565b5b818110156200063f576200063360008262000600565b6001810190506200061d565b5050565b601f8211156200068e57620006588162000502565b620006638462000517565b8101602085101562000673578190505b6200068b620006828562000517565b8301826200061c565b50505b505050565b600082821c905092915050565b6000620006b36000198460080262000693565b1980831691505092915050565b6000620006ce8383620006a0565b9150826002028217905092915050565b620006e98262000464565b67ffffffffffffffff8111156200070557620007046200046f565b5b620007118254620004cd565b6200071e82828562000643565b600060209050601f83116001811462000756576000841562000741578287015190505b6200074d8582620006c0565b865550620007bd565b601f198416620007668662000502565b60005b82811015620007905784890151825560018201915060208501945060208101905062000769565b86831015620007b05784890151620007ac601f891682620006a0565b8355505b6001600288020188555050505b505050505050565b60006fffffffffffffffffffffffffffffffff82169050919050565b7f4e487b7100000000000000000000000000000000000000000000000000000000600052601160045260246000fd5b60006200081d82620007c5565b91506200082a83620007c5565b9250816fffffffffffffffffffffffffffffffff0483118215151615620008565762000855620007e1565b5b828202905092915050565b61281480620008716000396000f3fe608060405234801561001057600080fd5b50600436106101165760003560e01c8063647d380d116100a2578063a22cb46511610071578063a22cb4651461031d578063b88d4fde14610339578063c16bbced14610355578063c87b56dd14610385578063e985e9c5146103b557610116565b8063647d380d1461026b57806370a082311461029b57806395d89b41146102cb5780639e582ee4146102e957610116565b8063095ea7b3116100e9578063095ea7b3146101c957806323b872dd146101e55780632565b1591461020157806342842e0e1461021f5780636352211e1461023b57610116565b806301ffc9a71461011b57806303e619cd1461014b57806306fdde031461017b578063081812fc14610199575b600080fd5b61013560048036038101906101309190611787565b6103e5565b60405161014291906117cf565b60405180910390f35b6101656004803603810190610160919061187e565b6104c7565b60405161017291906118cd565b60405180910390f35b6101836104f8565b6040516101909190611981565b60405180910390f35b6101b360048036038101906101ae91906119a3565b61058a565b6040516101c091906119df565b60405180910390f35b6101e360048036038101906101de919061187e565b6105d0565b005b6101ff60048036038101906101fa91906119fa565b6106e7565b005b610209610747565b6040516102169190611a78565b60405180910390f35b610239600480360381019061023491906119fa565b61075f565b005b610255600480360381019061025091906119a3565b61077f565b60405161026291906119df565b60405180910390f35b61028560048036038101906102809190611a93565b6107bf565b60405161029291906118cd565b60405180910390f35b6102b560048036038101906102b09190611a93565b6108fb565b6040516102c291906118cd565b60405180910390f35b6102d3610998565b6040516102e09190611981565b60405180910390f35b61030360048036038101906102fe91906119a3565b610a2a565b604051610314959493929190611ac0565b60405180910390f35b61033760048036038101906103329190611b3f565b610ad4565b005b610353600480360381019061034e9190611cb4565b610aea565b005b61036f600480360381019061036a9190611df4565b610b4c565b60405161037c91906118cd565b60405180910390f35b61039f600480360381019061039a91906119a3565b610b9e565b6040516103ac9190611981565b60405180910390f35b6103cf60048036038101906103ca9190611e21565b610c06565b6040516103dc91906117cf565b60405180910390f35b60007f80ac58cd000000000000000000000000000000000000000000000000000000007bffffffffffffffffffffffffffffffffffffffffffffffffffffffff1916827bffffffffffffffffffffffffffffffffffffffffffffffffffffffff191614806104b057507f5b5e139f000000000000000000000000000000000000000000000000000000007bffffffffffffffffffffffffffffffffffffffffffffffffffffffff1916827bffffffffffffffffffffffffffffffffffffffffffffffffffffffff1916145b806104c057506104bf82610c9a565b5b9050919050565b600760205281600052604060002081815481106104e357600080fd5b90600052602060002001600091509150505481565b60606000805461050790611e90565b80601f016020809104026020016040519081016040528092919081815260200182805461053390611e90565b80156105805780601f1061055557610100808354040283529160200191610580565b820191906000526020600020905b81548152906001019060200180831161056357829003601f168201915b5050505050905090565b600061059582610d04565b6004600083815260200190815260200160002060009054906101000a900473ffffffffffffffffffffffffffffffffffffffff169050919050565b60006105db82610d4f565b90508073ffffffffffffffffffffffffffffffffffffffff168373ffffffffffffffffffffffffffffffffffffffff160361064b576040517f08c379a000000000000000000000000000000000000000000000000000000000815260040161064290611f33565b60405180910390fd5b8073ffffffffffffffffffffffffffffffffffffffff1661066a610e00565b73ffffffffffffffffffffffffffffffffffffffff161480610699575061069881610693610e00565b610c06565b5b6106d8576040517f08c379a00000000000000000000000000000000000000000000000000000000081526004016106cf90611fc5565b60405180910390fd5b6106e28383610e08565b505050565b6106f86106f2610e00565b82610ec1565b610737576040517f08c379a000000000000000000000000000000000000000000000000000000000815260040161072e90612057565b60405180910390fd5b610742838383610f56565b505050565b60006fffffffffffffffffffffffffffffffff905090565b61077a83838360405180602001604052806000815250610aea565b505050565b60006006600083815260200190815260200160002060020160009054906101000a900473ffffffffffffffffffffffffffffffffffffffff169050919050565b600080600760008473ffffffffffffffffffffffffffffffffffffffff1673ffffffffffffffffffffffffffffffffffffffff16815260200190815260200160002080548060200260200160405190810160405280929190818152602001828054801561084b57602002820191906000526020600020905b815481526020019060010190808311610837575b505050505090506000805b82518110156108f05760006006600085848151811061087857610877612077565b5b6020026020010151815260200190815260200160002060010160009054906101000a90046fffffffffffffffffffffffffffffffff166fffffffffffffffffffffffffffffffff1690506002816108cf9190612215565b836108da9190612260565b92505080806108e8906122b6565b915050610856565b508092505050919050565b600080600760008473ffffffffffffffffffffffffffffffffffffffff1673ffffffffffffffffffffffffffffffffffffffff16815260200190815260200160002080548060200260200160405190810160405280929190818152602001828054801561098757602002820191906000526020600020905b815481526020019060010190808311610973575b505050505090508051915050919050565b6060600180546109a790611e90565b80601f01602080910402602001604051908101604052809291908181526020018280546109d390611e90565b8015610a205780601f106109f557610100808354040283529160200191610a20565b820191906000526020600020905b815481529060010190602001808311610a0357829003601f168201915b5050505050905090565b60066020528060005260406000206000915090508060000160009054906101000a90046fffffffffffffffffffffffffffffffff16908060000160109054906101000a90046fffffffffffffffffffffffffffffffff16908060010160009054906101000a90046fffffffffffffffffffffffffffffffff16908060020160009054906101000a900473ffffffffffffffffffffffffffffffffffffffff16908060030154905085565b610ae6610adf610e00565b83836111bc565b5050565b610afb610af5610e00565b83610ec1565b610b3a576040517f08c379a0000000000000000000000000000000000000000000000000000000008152600401610b3190612057565b60405180910390fd5b610b4684848484611328565b50505050565b600080610b57610747565b8360200151610b6691906122fe565b6fffffffffffffffffffffffffffffffff16905082600001516fffffffffffffffffffffffffffffffff168116905080915050919050565b6060610ba982610d04565b6000610bb3611384565b90506000815111610bd35760405180602001604052806000815250610bfe565b80610bdd8461139b565b604051602001610bee929190612384565b6040516020818303038152906040525b915050919050565b6000600560008473ffffffffffffffffffffffffffffffffffffffff1673ffffffffffffffffffffffffffffffffffffffff16815260200190815260200160002060008373ffffffffffffffffffffffffffffffffffffffff1673ffffffffffffffffffffffffffffffffffffffff16815260200190815260200160002060009054906101000a900460ff16905092915050565b60007f01ffc9a7000000000000000000000000000000000000000000000000000000007bffffffffffffffffffffffffffffffffffffffffffffffffffffffff1916827bffffffffffffffffffffffffffffffffffffffffffffffffffffffff1916149050919050565b610d0d816114fb565b610d4c576040517f08c379a0000000000000000000000000000000000000000000000000000000008152600401610d43906123f4565b60405180910390fd5b50565b6000806002600084815260200190815260200160002060009054906101000a900473ffffffffffffffffffffffffffffffffffffffff169050600073ffffffffffffffffffffffffffffffffffffffff168173ffffffffffffffffffffffffffffffffffffffff1603610df7576040517f08c379a0000000000000000000000000000000000000000000000000000000008152600401610dee906123f4565b60405180910390fd5b80915050919050565b600033905090565b816004600083815260200190815260200160002060006101000a81548173ffffffffffffffffffffffffffffffffffffffff021916908373ffffffffffffffffffffffffffffffffffffffff160217905550808273ffffffffffffffffffffffffffffffffffffffff16610e7b83610d4f565b73ffffffffffffffffffffffffffffffffffffffff167f8c5be1e5ebec7d5bd14f71427d1e84f3dd0314c0f7b2291e5b200ac8c7c3b92560405160405180910390a45050565b600080610ecd83610d4f565b90508073ffffffffffffffffffffffffffffffffffffffff168473ffffffffffffffffffffffffffffffffffffffff161480610f0f5750610f0e8185610c06565b5b80610f4d57508373ffffffffffffffffffffffffffffffffffffffff16610f358461058a565b73ffffffffffffffffffffffffffffffffffffffff16145b91505092915050565b8273ffffffffffffffffffffffffffffffffffffffff16610f7682610d4f565b73ffffffffffffffffffffffffffffffffffffffff1614610fcc576040517f08c379a0000000000000000000000000000000000000000000000000000000008152600401610fc390612486565b60405180910390fd5b600073ffffffffffffffffffffffffffffffffffffffff168273ffffffffffffffffffffffffffffffffffffffff160361103b576040517f08c379a000000000000000000000000000000000000000000000000000000000815260040161103290612518565b60405180910390fd5b611046838383611567565b611051600082610e08565b6001600360008573ffffffffffffffffffffffffffffffffffffffff1673ffffffffffffffffffffffffffffffffffffffff16815260200190815260200160002060008282546110a19190612538565b925050819055506001600360008473ffffffffffffffffffffffffffffffffffffffff1673ffffffffffffffffffffffffffffffffffffffff16815260200190815260200160002060008282546110f89190612260565b92505081905550816002600083815260200190815260200160002060006101000a81548173ffffffffffffffffffffffffffffffffffffffff021916908373ffffffffffffffffffffffffffffffffffffffff160217905550808273ffffffffffffffffffffffffffffffffffffffff168473ffffffffffffffffffffffffffffffffffffffff167fddf252ad1be2c89b69c2b068fc378daa952ba7f163c4a11628f55a4df523b3ef60405160405180910390a46111b783838361156c565b505050565b8173ffffffffffffffffffffffffffffffffffffffff168373ffffffffffffffffffffffffffffffffffffffff160361122a576040517f08c379a0000000000000000000000000000000000000000000000000000000008152600401611221906125b8565b60405180910390fd5b80600560008573ffffffffffffffffffffffffffffffffffffffff1673ffffffffffffffffffffffffffffffffffffffff16815260200190815260200160002060008473ffffffffffffffffffffffffffffffffffffffff1673ffffffffffffffffffffffffffffffffffffffff16815260200190815260200160002060006101000a81548160ff0219169083151502179055508173ffffffffffffffffffffffffffffffffffffffff168373ffffffffffffffffffffffffffffffffffffffff167f17307eab39ab6107e8899845ad3d59bd9653f200f220920489ca2b5937696c318360405161131b91906117cf565b60405180910390a3505050565b611333848484610f56565b61133f84848484611571565b61137e576040517f08c379a00000000000000000000000000000000000000000000000000000000081526004016113759061264a565b60405180910390fd5b50505050565b606060405180602001604052806000815250905090565b6060600082036113e2576040518060400160405280600181526020017f300000000000000000000000000000000000000000000000000000000000000081525090506114f6565b600082905060005b600082146114145780806113fd906122b6565b915050600a8261140d9190612699565b91506113ea565b60008167ffffffffffffffff8111156114305761142f611b89565b5b6040519080825280601f01601f1916602001820160405280156114625781602001600182028036833780820191505090505b5090505b600085146114ef5760018261147b9190612538565b9150600a8561148a91906126ca565b60306114969190612260565b60f81b8183815181106114ac576114ab612077565b5b60200101907effffffffffffffffffffffffffffffffffffffffffffffffffffffffffffff1916908160001a905350600a856114e89190612699565b9450611466565b8093505050505b919050565b60008073ffffffffffffffffffffffffffffffffffffffff166002600084815260200190815260200160002060009054906101000a900473ffffffffffffffffffffffffffffffffffffffff1673ffffffffffffffffffffffffffffffffffffffff1614159050919050565b505050565b505050565b60006115928473ffffffffffffffffffffffffffffffffffffffff166116f8565b156116eb578373ffffffffffffffffffffffffffffffffffffffff1663150b7a026115bb610e00565b8786866040518563ffffffff1660e01b81526004016115dd9493929190612750565b6020604051808303816000875af192505050801561161957506040513d601f19601f8201168201806040525081019061161691906127b1565b60015b61169b573d8060008114611649576040519150601f19603f3d011682016040523d82523d6000602084013e61164e565b606091505b506000815103611693576040517f08c379a000000000000000000000000000000000000000000000000000000000815260040161168a9061264a565b60405180910390fd5b805181602001fd5b63150b7a0260e01b7bffffffffffffffffffffffffffffffffffffffffffffffffffffffff1916817bffffffffffffffffffffffffffffffffffffffffffffffffffffffff1916149150506116f0565b600190505b949350505050565b6000808273ffffffffffffffffffffffffffffffffffffffff163b119050919050565b6000604051905090565b600080fd5b600080fd5b60007fffffffff0000000000000000000000000000000000000000000000000000000082169050919050565b6117648161172f565b811461176f57600080fd5b50565b6000813590506117818161175b565b92915050565b60006020828403121561179d5761179c611725565b5b60006117ab84828501611772565b91505092915050565b60008115159050919050565b6117c9816117b4565b82525050565b60006020820190506117e460008301846117c0565b92915050565b600073ffffffffffffffffffffffffffffffffffffffff82169050919050565b6000611815826117ea565b9050919050565b6118258161180a565b811461183057600080fd5b50565b6000813590506118428161181c565b92915050565b6000819050919050565b61185b81611848565b811461186657600080fd5b50565b60008135905061187881611852565b92915050565b6000806040838503121561189557611894611725565b5b60006118a385828601611833565b92505060206118b485828601611869565b9150509250929050565b6118c781611848565b82525050565b60006020820190506118e260008301846118be565b92915050565b600081519050919050565b600082825260208201905092915050565b60005b83811015611922578082015181840152602081019050611907565b83811115611931576000848401525b50505050565b6000601f19601f8301169050919050565b6000611953826118e8565b61195d81856118f3565b935061196d818560208601611904565b61197681611937565b840191505092915050565b6000602082019050818103600083015261199b8184611948565b905092915050565b6000602082840312156119b9576119b8611725565b5b60006119c784828501611869565b91505092915050565b6119d98161180a565b82525050565b60006020820190506119f460008301846119d0565b92915050565b600080600060608486031215611a1357611a12611725565b5b6000611a2186828701611833565b9350506020611a3286828701611833565b9250506040611a4386828701611869565b9150509250925092565b60006fffffffffffffffffffffffffffffffff82169050919050565b611a7281611a4d565b82525050565b6000602082019050611a8d6000830184611a69565b92915050565b600060208284031215611aa957611aa8611725565b5b6000611ab784828501611833565b91505092915050565b600060a082019050611ad56000830188611a69565b611ae26020830187611a69565b611aef6040830186611a69565b611afc60608301856119d0565b611b0960808301846118be565b9695505050505050565b611b1c816117b4565b8114611b2757600080fd5b50565b600081359050611b3981611b13565b92915050565b60008060408385031215611b5657611b55611725565b5b6000611b6485828601611833565b9250506020611b7585828601611b2a565b9150509250929050565b600080fd5b600080fd5b7f4e487b7100000000000000000000000000000000000000000000000000000000600052604160045260246000fd5b611bc182611937565b810181811067ffffffffffffffff82111715611be057611bdf611b89565b5b80604052505050565b6000611bf361171b565b9050611bff8282611bb8565b919050565b600067ffffffffffffffff821115611c1f57611c1e611b89565b5b611c2882611937565b9050602081019050919050565b82818337600083830152505050565b6000611c57611c5284611c04565b611be9565b905082815260208101848484011115611c7357611c72611b84565b5b611c7e848285611c35565b509392505050565b600082601f830112611c9b57611c9a611b7f565b5b8135611cab848260208601611c44565b91505092915050565b60008060008060808587031215611cce57611ccd611725565b5b6000611cdc87828801611833565b9450506020611ced87828801611833565b9350506040611cfe87828801611869565b925050606085013567ffffffffffffffff811115611d1f57611d1e61172a565b5b611d2b87828801611c86565b91505092959194509250565b600080fd5b611d4581611a4d565b8114611d5057600080fd5b50565b600081359050611d6281611d3c565b92915050565b600060a08284031215611d7e57611d7d611d37565b5b611d8860a0611be9565b90506000611d9884828501611d53565b6000830152506020611dac84828501611d53565b6020830152506040611dc084828501611d53565b6040830152506060611dd484828501611833565b6060830152506080611de884828501611869565b60808301525092915050565b600060a08284031215611e0a57611e09611725565b5b6000611e1884828501611d68565b91505092915050565b60008060408385031215611e3857611e37611725565b5b6000611e4685828601611833565b9250506020611e5785828601611833565b9150509250929050565b7f4e487b7100000000000000000000000000000000000000000000000000000000600052602260045260246000fd5b60006002820490506001821680611ea857607f821691505b602082108103611ebb57611eba611e61565b5b50919050565b7f4552433732313a20617070726f76616c20746f2063757272656e74206f776e6560008201527f7200000000000000000000000000000000000000000000000000000000000000602082015250565b6000611f1d6021836118f3565b9150611f2882611ec1565b604082019050919050565b60006020820190508181036000830152611f4c81611f10565b9050919050565b7f4552433732313a20617070726f76652063616c6c6572206973206e6f7420746f60008201527f6b656e206f776e6572206e6f7220617070726f76656420666f7220616c6c0000602082015250565b6000611faf603e836118f3565b9150611fba82611f53565b604082019050919050565b60006020820190508181036000830152611fde81611fa2565b9050919050565b7f4552433732313a2063616c6c6572206973206e6f7420746f6b656e206f776e6560008201527f72206e6f7220617070726f766564000000000000000000000000000000000000602082015250565b6000612041602e836118f3565b915061204c82611fe5565b604082019050919050565b6000602082019050818103600083015261207081612034565b9050919050565b7f4e487b7100000000000000000000000000000000000000000000000000000000600052603260045260246000fd5b7f4e487b7100000000000000000000000000000000000000000000000000000000600052601160045260246000fd5b60008160011c9050919050565b6000808291508390505b600185111561212c57808604811115612108576121076120a6565b5b60018516156121175780820291505b8081029050612125856120d5565b94506120ec565b94509492505050565b6000826121455760019050612201565b816121535760009050612201565b81600181146121695760028114612173576121a2565b6001915050612201565b60ff841115612185576121846120a6565b5b8360020a91508482111561219c5761219b6120a6565b5b50612201565b5060208310610133831016604e8410600b84101617156121d75782820a9050838111156121d2576121d16120a6565b5b612201565b6121e484848460016120e2565b925090508184048111156121fb576121fa6120a6565b5b81810290505b9392505050565b600060ff82169050919050565b600061222082611848565b915061222b83612208565b92506122587fffffffffffffffffffffffffffffffffffffffffffffffffffffffffffffffff8484612135565b905092915050565b600061226b82611848565b915061227683611848565b9250827fffffffffffffffffffffffffffffffffffffffffffffffffffffffffffffffff038211156122ab576122aa6120a6565b5b828201905092915050565b60006122c182611848565b91507fffffffffffffffffffffffffffffffffffffffffffffffffffffffffffffffff82036122f3576122f26120a6565b5b600182019050919050565b600061230982611a4d565b915061231483611a4d565b9250816fffffffffffffffffffffffffffffffff048311821515161561233d5761233c6120a6565b5b828202905092915050565b600081905092915050565b600061235e826118e8565b6123688185612348565b9350612378818560208601611904565b80840191505092915050565b60006123908285612353565b915061239c8284612353565b91508190509392505050565b7f4552433732313a20696e76616c696420746f6b656e2049440000000000000000600082015250565b60006123de6018836118f3565b91506123e9826123a8565b602082019050919050565b6000602082019050818103600083015261240d816123d1565b9050919050565b7f4552433732313a207472616e736665722066726f6d20696e636f72726563742060008201527f6f776e6572000000000000000000000000000000000000000000000000000000602082015250565b60006124706025836118f3565b915061247b82612414565b604082019050919050565b6000602082019050818103600083015261249f81612463565b9050919050565b7f4552433732313a207472616e7366657220746f20746865207a65726f2061646460008201527f7265737300000000000000000000000000000000000000000000000000000000602082015250565b60006125026024836118f3565b915061250d826124a6565b604082019050919050565b60006020820190508181036000830152612531816124f5565b9050919050565b600061254382611848565b915061254e83611848565b925082821015612561576125606120a6565b5b828203905092915050565b7f4552433732313a20617070726f766520746f2063616c6c657200000000000000600082015250565b60006125a26019836118f3565b91506125ad8261256c565b602082019050919050565b600060208201905081810360008301526125d181612595565b9050919050565b7f4552433732313a207472616e7366657220746f206e6f6e20455243373231526560008201527f63656976657220696d706c656d656e7465720000000000000000000000000000602082015250565b60006126346032836118f3565b915061263f826125d8565b604082019050919050565b6000602082019050818103600083015261266381612627565b9050919050565b7f4e487b7100000000000000000000000000000000000000000000000000000000600052601260045260246000fd5b60006126a482611848565b91506126af83611848565b9250826126bf576126be61266a565b5b828204905092915050565b60006126d582611848565b91506126e083611848565b9250826126f0576126ef61266a565b5b828206905092915050565b600081519050919050565b600082825260208201905092915050565b6000612722826126fb565b61272c8185612706565b935061273c818560208601611904565b61274581611937565b840191505092915050565b600060808201905061276560008301876119d0565b61277260208301866119d0565b61277f60408301856118be565b81810360608301526127918184612717565b905095945050505050565b6000815190506127ab8161175b565b92915050565b6000602082840312156127c7576127c6611725565b5b60006127d58482850161279c565b9150509291505056fea2646970667358221220f0af4995bdfa53aba93863f9a141c5deb2c00c03bc268f707c3df440f45a100064736f6c634300080f0033",
  "immutableReferences": {},
  "source": "pragma solidity ^0.8;\npragma experimental ABIEncoderV2;\n\nimport \"@openzeppelin/contracts/token/ERC721/ERC721.sol\";\n\ncontract blockporb is ERC721(\"HelloNft\", \"HNFT\") {\n    // property struct\n    // TODO rename, Block?\n    struct Property {\n        uint128 x;\n        uint128 y;\n        uint128 size;\n        address owner;\n        uint256 propertyID;\n    }\n\n\n    /*** data structures ***/\n    // id to property struct\n    mapping(uint256 => Property) public idToProperties;\n    // owner address to id list\n    // TODO maybe nested mapping?\n    mapping(address => uint256[]) public ownerToPropertyList;\n\n    /*** events ***/\n    //TODO compare https://stackoverflow.com/questions/67485324/solidity-typeerror-overriding-function-is-missing-override-specifier\n    // either inherit ERC721 or implement these events\n    //event Transfer(address indexed _from, address indexed _to, uint256 indexed _tokenId);\n    //event Approval(address indexed _owner, address indexed _approved, uint256 indexed _tokenId);\n    //event ApprovalForAll(address indexed _owner, address indexed _operator, bool _approved);\n\n    /*** own functions ***/\n    // assign initial property to caller of constructor\n    constructor() public {\n        Property memory init = Property(0, 0, maxSize(), msg.sender, 0);\n        addStructToAddress(init, msg.sender);\n        // TODO save msg.sender as authority\n    }\n\n    // return the maximum size a property object can have\n    function maxSize() public view returns (uint128) {\n        // half of max uint256 because id is uint256\n        return 2 ** 128 - 1;\n    }\n\n    // create ID by writing x and y in one variable which produces unique identifier\n    function getId(Property memory prob) public returns (uint256) {\n        uint256 id = prob.y * maxSize();\n        id = id & prob.x;\n        return id;\n    }\n\n    // convinience function to add a Property to an address in all relevant data structures\n    function addStructToAddress(Property memory prob, address owner) private {\n        prob.owner = owner;\n        uint256 id = getId(prob);\n        idToProperties[id] = prob;\n\n        uint256[] storage list = ownerToPropertyList[owner];\n        list.push(id);\n        ownerToPropertyList[owner] = list;\n    }\n\n    // extension of balanceOf returning the total size of the owner's property\n    function areaBalanceOf(address _owner) external view returns (uint256) {\n        uint256[] memory list = ownerToPropertyList[_owner];\n        uint256 totalArea = 0;\n        for (uint i=0; i<list.length; i++) {\n            uint256 iArea = idToProperties[list[i]].size;\n            totalArea += iArea ** 2;\n        }\n        return totalArea;\n    }\n\n    /*** ERC721 functions ***/\n    // number of tokens for given owner\n    function balanceOf(address _owner) public override view returns (uint256) {\n        uint256[] memory list = ownerToPropertyList[_owner];\n        return list.length;\n    }\n    // owner for property\n    function ownerOf(uint256 _tokenId) public override view returns (address) {\n        return idToProperties[_tokenId].owner;\n    }\n\n    // TODO transfer\n    // TODO registration\n}\n",
  "sourcePath": "/Users/leonhardthyssen/Desktop/Neuer Ordner mit Objekten/BCT/blockprop/contracts/blockprob_prototype.sol",
  "compiler": {
    "name": "solc",
    "version": "0.8.15+commit.e14f2714.Emscripten.clang"
  },
  "schemaVersion": "3.4.8",
  "updatedAt": "2022-07-03T17:00:57.811Z",
  "devdoc": {
    "kind": "dev",
    "methods": {
      "approve(address,uint256)": {
        "details": "See {IERC721-approve}."
      },
      "getApproved(uint256)": {
        "details": "See {IERC721-getApproved}."
      },
      "isApprovedForAll(address,address)": {
        "details": "See {IERC721-isApprovedForAll}."
      },
      "name()": {
        "details": "See {IERC721Metadata-name}."
      },
      "safeTransferFrom(address,address,uint256)": {
        "details": "See {IERC721-safeTransferFrom}."
      },
      "safeTransferFrom(address,address,uint256,bytes)": {
        "details": "See {IERC721-safeTransferFrom}."
      },
      "setApprovalForAll(address,bool)": {
        "details": "See {IERC721-setApprovalForAll}."
      },
      "supportsInterface(bytes4)": {
        "details": "See {IERC165-supportsInterface}."
      },
      "symbol()": {
        "details": "See {IERC721Metadata-symbol}."
      },
      "tokenURI(uint256)": {
        "details": "See {IERC721Metadata-tokenURI}."
      },
      "transferFrom(address,address,uint256)": {
        "details": "See {IERC721-transferFrom}."
      }
    },
    "version": 1
  },
  "userdoc": {
    "kind": "user",
    "methods": {},
    "version": 1
  }
}