{
  "contractName": "blockporb",
  "abi": [
    {
      "inputs": [],
      "stateMutability": "nonpayable",
      "type": "constructor"
    },
    {
      "anonymous": false,
      "inputs": [
        {
          "indexed": true,
          "internalType": "address",
          "name": "owner",
          "type": "address"
        },
        {
          "indexed": true,
          "internalType": "address",
          "name": "approved",
          "type": "address"
        },
        {
          "indexed": true,
          "internalType": "uint256",
          "name": "tokenId",
          "type": "uint256"
        }
      ],
      "name": "Approval",
      "type": "event"
    },
    {
      "anonymous": false,
      "inputs": [
        {
          "indexed": true,
          "internalType": "address",
          "name": "owner",
          "type": "address"
        },
        {
          "indexed": true,
          "internalType": "address",
          "name": "operator",
          "type": "address"
        },
        {
          "indexed": false,
          "internalType": "bool",
          "name": "approved",
          "type": "bool"
        }
      ],
      "name": "ApprovalForAll",
      "type": "event"
    },
    {
      "anonymous": false,
      "inputs": [
        {
          "indexed": true,
          "internalType": "address",
          "name": "from",
          "type": "address"
        },
        {
          "indexed": true,
          "internalType": "address",
          "name": "to",
          "type": "address"
        },
        {
          "indexed": true,
          "internalType": "uint256",
          "name": "tokenId",
          "type": "uint256"
        }
      ],
      "name": "Transfer",
      "type": "event"
    },
    {
      "inputs": [
        {
          "internalType": "address",
          "name": "to",
          "type": "address"
        },
        {
          "internalType": "uint256",
          "name": "tokenId",
          "type": "uint256"
        }
      ],
      "name": "approve",
      "outputs": [],
      "stateMutability": "nonpayable",
      "type": "function"
    },
    {
      "inputs": [
        {
          "internalType": "uint256",
          "name": "tokenId",
          "type": "uint256"
        }
      ],
      "name": "getApproved",
      "outputs": [
        {
          "internalType": "address",
          "name": "",
          "type": "address"
        }
      ],
      "stateMutability": "view",
      "type": "function",
      "constant": true
    },
    {
      "inputs": [
        {
          "internalType": "address",
          "name": "",
          "type": "address"
        }
      ],
      "name": "idToOwner",
      "outputs": [
        {
          "internalType": "address",
          "name": "taxID",
          "type": "address"
        },
        {
          "internalType": "address payable",
          "name": "etheriumID",
          "type": "address"
        },
        {
          "internalType": "string",
          "name": "name",
          "type": "string"
        }
      ],
      "stateMutability": "view",
      "type": "function",
      "constant": true
    },
    {
      "inputs": [
        {
          "internalType": "uint256",
          "name": "",
          "type": "uint256"
        }
      ],
      "name": "idToProperties",
      "outputs": [
        {
          "internalType": "uint128",
          "name": "x",
          "type": "uint128"
        },
        {
          "internalType": "uint128",
          "name": "y",
          "type": "uint128"
        },
        {
          "internalType": "uint128",
          "name": "size",
          "type": "uint128"
        },
        {
          "internalType": "address",
          "name": "owner",
          "type": "address"
        },
        {
          "internalType": "uint256",
          "name": "propertyID",
          "type": "uint256"
        }
      ],
      "stateMutability": "view",
      "type": "function",
      "constant": true
    },
    {
      "inputs": [
        {
          "internalType": "address",
          "name": "owner",
          "type": "address"
        },
        {
          "internalType": "address",
          "name": "operator",
          "type": "address"
        }
      ],
      "name": "isApprovedForAll",
      "outputs": [
        {
          "internalType": "bool",
          "name": "",
          "type": "bool"
        }
      ],
      "stateMutability": "view",
      "type": "function",
      "constant": true
    },
    {
      "inputs": [],
      "name": "name",
      "outputs": [
        {
          "internalType": "string",
          "name": "",
          "type": "string"
        }
      ],
      "stateMutability": "view",
      "type": "function",
      "constant": true
    },
    {
      "inputs": [
        {
          "internalType": "address",
          "name": "",
          "type": "address"
        },
        {
          "internalType": "uint256",
          "name": "",
          "type": "uint256"
        }
      ],
      "name": "ownerToPropertyList",
      "outputs": [
        {
          "internalType": "uint256",
          "name": "",
          "type": "uint256"
        }
      ],
      "stateMutability": "view",
      "type": "function",
      "constant": true
    },
    {
      "inputs": [
        {
          "internalType": "address",
          "name": "from",
          "type": "address"
        },
        {
          "internalType": "address",
          "name": "to",
          "type": "address"
        },
        {
          "internalType": "uint256",
          "name": "tokenId",
          "type": "uint256"
        }
      ],
      "name": "safeTransferFrom",
      "outputs": [],
      "stateMutability": "nonpayable",
      "type": "function"
    },
    {
      "inputs": [
        {
          "internalType": "address",
          "name": "from",
          "type": "address"
        },
        {
          "internalType": "address",
          "name": "to",
          "type": "address"
        },
        {
          "internalType": "uint256",
          "name": "tokenId",
          "type": "uint256"
        },
        {
          "internalType": "bytes",
          "name": "data",
          "type": "bytes"
        }
      ],
      "name": "safeTransferFrom",
      "outputs": [],
      "stateMutability": "nonpayable",
      "type": "function"
    },
    {
      "inputs": [
        {
          "internalType": "address",
          "name": "operator",
          "type": "address"
        },
        {
          "internalType": "bool",
          "name": "approved",
          "type": "bool"
        }
      ],
      "name": "setApprovalForAll",
      "outputs": [],
      "stateMutability": "nonpayable",
      "type": "function"
    },
    {
      "inputs": [
        {
          "internalType": "bytes4",
          "name": "interfaceId",
          "type": "bytes4"
        }
      ],
      "name": "supportsInterface",
      "outputs": [
        {
          "internalType": "bool",
          "name": "",
          "type": "bool"
        }
      ],
      "stateMutability": "view",
      "type": "function",
      "constant": true
    },
    {
      "inputs": [],
      "name": "symbol",
      "outputs": [
        {
          "internalType": "string",
          "name": "",
          "type": "string"
        }
      ],
      "stateMutability": "view",
      "type": "function",
      "constant": true
    },
    {
      "inputs": [
        {
          "internalType": "uint256",
          "name": "tokenId",
          "type": "uint256"
        }
      ],
      "name": "tokenURI",
      "outputs": [
        {
          "internalType": "string",
          "name": "",
          "type": "string"
        }
      ],
      "stateMutability": "view",
      "type": "function",
      "constant": true
    },
    {
      "inputs": [
        {
          "internalType": "address",
          "name": "from",
          "type": "address"
        },
        {
          "internalType": "address",
          "name": "to",
          "type": "address"
        },
        {
          "internalType": "uint256",
          "name": "tokenId",
          "type": "uint256"
        }
      ],
      "name": "transferFrom",
      "outputs": [],
      "stateMutability": "nonpayable",
      "type": "function"
    },
    {
      "inputs": [],
      "name": "maxSize",
      "outputs": [
        {
          "internalType": "uint128",
          "name": "",
          "type": "uint128"
        }
      ],
      "stateMutability": "view",
      "type": "function",
      "constant": true
    },
    {
      "inputs": [
        {
          "components": [
            {
              "internalType": "uint128",
              "name": "x",
              "type": "uint128"
            },
            {
              "internalType": "uint128",
              "name": "y",
              "type": "uint128"
            },
            {
              "internalType": "uint128",
              "name": "size",
              "type": "uint128"
            },
            {
              "internalType": "address",
              "name": "owner",
              "type": "address"
            },
            {
              "internalType": "uint256",
              "name": "propertyID",
              "type": "uint256"
            }
          ],
          "internalType": "struct blockporb.Property",
          "name": "prob",
          "type": "tuple"
        }
      ],
      "name": "getId",
      "outputs": [
        {
          "internalType": "uint256",
          "name": "",
          "type": "uint256"
        }
      ],
      "stateMutability": "nonpayable",
      "type": "function"
    },
    {
      "inputs": [
        {
          "internalType": "address",
          "name": "_owner",
          "type": "address"
        }
      ],
      "name": "areaBalanceOf",
      "outputs": [
        {
          "internalType": "uint256",
          "name": "",
          "type": "uint256"
        }
      ],
      "stateMutability": "view",
      "type": "function",
      "constant": true
    },
    {
      "inputs": [
        {
          "internalType": "address",
          "name": "_owner",
          "type": "address"
        }
      ],
      "name": "balanceOf",
      "outputs": [
        {
          "internalType": "uint256",
          "name": "",
          "type": "uint256"
        }
      ],
      "stateMutability": "view",
      "type": "function",
      "constant": true
    },
    {
      "inputs": [
        {
          "internalType": "uint256",
          "name": "_tokenId",
          "type": "uint256"
        }
      ],
      "name": "ownerOf",
      "outputs": [
        {
          "internalType": "address",
          "name": "",
          "type": "address"
        }
      ],
      "stateMutability": "view",
      "type": "function",
      "constant": true
    }
  ],
  "bytecode": "0x60806040523480156200001157600080fd5b506040518060400160405280600881526020017f48656c6c6f4e66740000000000000000000000000000000000000000000000008152506040518060400160405280600481526020017f484e46540000000000000000000000000000000000000000000000000000000081525081600090816200008f9190620006de565b508060019081620000a19190620006de565b50505060006040518060a0016040528060006fffffffffffffffffffffffffffffffff16815260200160006fffffffffffffffffffffffffffffffff168152602001620000f36200014660201b60201c565b6fffffffffffffffffffffffffffffffff1681526020013373ffffffffffffffffffffffffffffffffffffffff168152602001600081525090506200013f81336200015e60201b60201c565b5062000861565b60006fffffffffffffffffffffffffffffffff905090565b80826060019073ffffffffffffffffffffffffffffffffffffffff16908173ffffffffffffffffffffffffffffffffffffffff16815250506000620001a9836200039260201b60201c565b9050826006600083815260200190815260200160002060008201518160000160006101000a8154816fffffffffffffffffffffffffffffffff02191690836fffffffffffffffffffffffffffffffff16021790555060208201518160000160106101000a8154816fffffffffffffffffffffffffffffffff02191690836fffffffffffffffffffffffffffffffff16021790555060408201518160010160006101000a8154816fffffffffffffffffffffffffffffffff02191690836fffffffffffffffffffffffffffffffff16021790555060608201518160020160006101000a81548173ffffffffffffffffffffffffffffffffffffffff021916908373ffffffffffffffffffffffffffffffffffffffff160217905550608082015181600301559050506000600860008473ffffffffffffffffffffffffffffffffffffffff1673ffffffffffffffffffffffffffffffffffffffff16815260200190815260200160002090508082908060018154018082558091505060019003906000526020600020016000909190919091505580600860008573ffffffffffffffffffffffffffffffffffffffff1673ffffffffffffffffffffffffffffffffffffffff1681526020019081526020016000209080546200038b929190620003ee565b5050505050565b600080620003a56200014660201b60201c565b8360200151620003b6919062000810565b6fffffffffffffffffffffffffffffffff16905082600001516fffffffffffffffffffffffffffffffff168116905080915050919050565b828054828255906000526020600020908101928215620004325760005260206000209182015b828111156200043157825482559160010191906001019062000414565b5b50905062000441919062000445565b5090565b5b808211156200046057600081600090555060010162000446565b5090565b600081519050919050565b7f4e487b7100000000000000000000000000000000000000000000000000000000600052604160045260246000fd5b7f4e487b7100000000000000000000000000000000000000000000000000000000600052602260045260246000fd5b60006002820490506001821680620004e657607f821691505b602082108103620004fc57620004fb6200049e565b5b50919050565b60008190508160005260206000209050919050565b60006020601f8301049050919050565b600082821b905092915050565b600060088302620005667fffffffffffffffffffffffffffffffffffffffffffffffffffffffffffffffff8262000527565b62000572868362000527565b95508019841693508086168417925050509392505050565b6000819050919050565b6000819050919050565b6000620005bf620005b9620005b3846200058a565b62000594565b6200058a565b9050919050565b6000819050919050565b620005db836200059e565b620005f3620005ea82620005c6565b84845462000534565b825550505050565b600090565b6200060a620005fb565b62000617818484620005d0565b505050565b5b818110156200063f576200063360008262000600565b6001810190506200061d565b5050565b601f8211156200068e57620006588162000502565b620006638462000517565b8101602085101562000673578190505b6200068b620006828562000517565b8301826200061c565b50505b505050565b600082821c905092915050565b6000620006b36000198460080262000693565b1980831691505092915050565b6000620006ce8383620006a0565b9150826002028217905092915050565b620006e98262000464565b67ffffffffffffffff8111156200070557620007046200046f565b5b620007118254620004cd565b6200071e82828562000643565b600060209050601f83116001811462000756576000841562000741578287015190505b6200074d8582620006c0565b865550620007bd565b601f198416620007668662000502565b60005b82811015620007905784890151825560018201915060208501945060208101905062000769565b86831015620007b05784890151620007ac601f891682620006a0565b8355505b6001600288020188555050505b505050505050565b60006fffffffffffffffffffffffffffffffff82169050919050565b7f4e487b7100000000000000000000000000000000000000000000000000000000600052601160045260246000fd5b60006200081d82620007c5565b91506200082a83620007c5565b9250816fffffffffffffffffffffffffffffffff0483118215151615620008565762000855620007e1565b5b828202905092915050565b6129a280620008716000396000f3fe608060405234801561001057600080fd5b50600436106101215760003560e01c8063647d380d116100ad578063b88d4fde11610071578063b88d4fde14610344578063c16bbced14610360578063c87b56dd14610390578063e985e9c5146103c0578063facb5c6a146103f057610121565b8063647d380d1461027657806370a08231146102a657806395d89b41146102d65780639e582ee4146102f4578063a22cb4651461032857610121565b8063095ea7b3116100f4578063095ea7b3146101d457806323b872dd146101f05780632565b1591461020c57806342842e0e1461022a5780636352211e1461024657610121565b806301ffc9a71461012657806303e619cd1461015657806306fdde0314610186578063081812fc146101a4575b600080fd5b610140600480360381019061013b91906118b6565b610422565b60405161014d91906118fe565b60405180910390f35b610170600480360381019061016b91906119ad565b610504565b60405161017d91906119fc565b60405180910390f35b61018e610535565b60405161019b9190611ab0565b60405180910390f35b6101be60048036038101906101b99190611ad2565b6105c7565b6040516101cb9190611b0e565b60405180910390f35b6101ee60048036038101906101e991906119ad565b61060d565b005b61020a60048036038101906102059190611b29565b610724565b005b610214610784565b6040516102219190611ba7565b60405180910390f35b610244600480360381019061023f9190611b29565b61079c565b005b610260600480360381019061025b9190611ad2565b6107bc565b60405161026d9190611b0e565b60405180910390f35b610290600480360381019061028b9190611bc2565b6107fc565b60405161029d91906119fc565b60405180910390f35b6102c060048036038101906102bb9190611bc2565b610938565b6040516102cd91906119fc565b60405180910390f35b6102de6109d5565b6040516102eb9190611ab0565b60405180910390f35b61030e60048036038101906103099190611ad2565b610a67565b60405161031f959493929190611bef565b60405180910390f35b610342600480360381019061033d9190611c6e565b610b11565b005b61035e60048036038101906103599190611de3565b610b27565b005b61037a60048036038101906103759190611f23565b610b89565b60405161038791906119fc565b60405180910390f35b6103aa60048036038101906103a59190611ad2565b610bdb565b6040516103b79190611ab0565b60405180910390f35b6103da60048036038101906103d59190611f50565b610c43565b6040516103e791906118fe565b60405180910390f35b61040a60048036038101906104059190611bc2565b610cd7565b60405161041993929190611fb1565b60405180910390f35b60007f80ac58cd000000000000000000000000000000000000000000000000000000007bffffffffffffffffffffffffffffffffffffffffffffffffffffffff1916827bffffffffffffffffffffffffffffffffffffffffffffffffffffffff191614806104ed57507f5b5e139f000000000000000000000000000000000000000000000000000000007bffffffffffffffffffffffffffffffffffffffffffffffffffffffff1916827bffffffffffffffffffffffffffffffffffffffffffffffffffffffff1916145b806104fd57506104fc82610dc9565b5b9050919050565b6008602052816000526040600020818154811061052057600080fd5b90600052602060002001600091509150505481565b6060600080546105449061201e565b80601f01602080910402602001604051908101604052809291908181526020018280546105709061201e565b80156105bd5780601f10610592576101008083540402835291602001916105bd565b820191906000526020600020905b8154815290600101906020018083116105a057829003601f168201915b5050505050905090565b60006105d282610e33565b6004600083815260200190815260200160002060009054906101000a900473ffffffffffffffffffffffffffffffffffffffff169050919050565b600061061882610e7e565b90508073ffffffffffffffffffffffffffffffffffffffff168373ffffffffffffffffffffffffffffffffffffffff1603610688576040517f08c379a000000000000000000000000000000000000000000000000000000000815260040161067f906120c1565b60405180910390fd5b8073ffffffffffffffffffffffffffffffffffffffff166106a7610f2f565b73ffffffffffffffffffffffffffffffffffffffff1614806106d657506106d5816106d0610f2f565b610c43565b5b610715576040517f08c379a000000000000000000000000000000000000000000000000000000000815260040161070c90612153565b60405180910390fd5b61071f8383610f37565b505050565b61073561072f610f2f565b82610ff0565b610774576040517f08c379a000000000000000000000000000000000000000000000000000000000815260040161076b906121e5565b60405180910390fd5b61077f838383611085565b505050565b60006fffffffffffffffffffffffffffffffff905090565b6107b783838360405180602001604052806000815250610b27565b505050565b60006006600083815260200190815260200160002060020160009054906101000a900473ffffffffffffffffffffffffffffffffffffffff169050919050565b600080600860008473ffffffffffffffffffffffffffffffffffffffff1673ffffffffffffffffffffffffffffffffffffffff16815260200190815260200160002080548060200260200160405190810160405280929190818152602001828054801561088857602002820191906000526020600020905b815481526020019060010190808311610874575b505050505090506000805b825181101561092d576000600660008584815181106108b5576108b4612205565b5b6020026020010151815260200190815260200160002060010160009054906101000a90046fffffffffffffffffffffffffffffffff166fffffffffffffffffffffffffffffffff16905060028161090c91906123a3565b8361091791906123ee565b925050808061092590612444565b915050610893565b508092505050919050565b600080600860008473ffffffffffffffffffffffffffffffffffffffff1673ffffffffffffffffffffffffffffffffffffffff1681526020019081526020016000208054806020026020016040519081016040528092919081815260200182805480156109c457602002820191906000526020600020905b8154815260200190600101908083116109b0575b505050505090508051915050919050565b6060600180546109e49061201e565b80601f0160208091040260200160405190810160405280929190818152602001828054610a109061201e565b8015610a5d5780601f10610a3257610100808354040283529160200191610a5d565b820191906000526020600020905b815481529060010190602001808311610a4057829003601f168201915b5050505050905090565b60066020528060005260406000206000915090508060000160009054906101000a90046fffffffffffffffffffffffffffffffff16908060000160109054906101000a90046fffffffffffffffffffffffffffffffff16908060010160009054906101000a90046fffffffffffffffffffffffffffffffff16908060020160009054906101000a900473ffffffffffffffffffffffffffffffffffffffff16908060030154905085565b610b23610b1c610f2f565b83836112eb565b5050565b610b38610b32610f2f565b83610ff0565b610b77576040517f08c379a0000000000000000000000000000000000000000000000000000000008152600401610b6e906121e5565b60405180910390fd5b610b8384848484611457565b50505050565b600080610b94610784565b8360200151610ba3919061248c565b6fffffffffffffffffffffffffffffffff16905082600001516fffffffffffffffffffffffffffffffff168116905080915050919050565b6060610be682610e33565b6000610bf06114b3565b90506000815111610c105760405180602001604052806000815250610c3b565b80610c1a846114ca565b604051602001610c2b929190612512565b6040516020818303038152906040525b915050919050565b6000600560008473ffffffffffffffffffffffffffffffffffffffff1673ffffffffffffffffffffffffffffffffffffffff16815260200190815260200160002060008373ffffffffffffffffffffffffffffffffffffffff1673ffffffffffffffffffffffffffffffffffffffff16815260200190815260200160002060009054906101000a900460ff16905092915050565b60076020528060005260406000206000915090508060000160009054906101000a900473ffffffffffffffffffffffffffffffffffffffff16908060010160009054906101000a900473ffffffffffffffffffffffffffffffffffffffff1690806002018054610d469061201e565b80601f0160208091040260200160405190810160405280929190818152602001828054610d729061201e565b8015610dbf5780601f10610d9457610100808354040283529160200191610dbf565b820191906000526020600020905b815481529060010190602001808311610da257829003601f168201915b5050505050905083565b60007f01ffc9a7000000000000000000000000000000000000000000000000000000007bffffffffffffffffffffffffffffffffffffffffffffffffffffffff1916827bffffffffffffffffffffffffffffffffffffffffffffffffffffffff1916149050919050565b610e3c8161162a565b610e7b576040517f08c379a0000000000000000000000000000000000000000000000000000000008152600401610e7290612582565b60405180910390fd5b50565b6000806002600084815260200190815260200160002060009054906101000a900473ffffffffffffffffffffffffffffffffffffffff169050600073ffffffffffffffffffffffffffffffffffffffff168173ffffffffffffffffffffffffffffffffffffffff1603610f26576040517f08c379a0000000000000000000000000000000000000000000000000000000008152600401610f1d90612582565b60405180910390fd5b80915050919050565b600033905090565b816004600083815260200190815260200160002060006101000a81548173ffffffffffffffffffffffffffffffffffffffff021916908373ffffffffffffffffffffffffffffffffffffffff160217905550808273ffffffffffffffffffffffffffffffffffffffff16610faa83610e7e565b73ffffffffffffffffffffffffffffffffffffffff167f8c5be1e5ebec7d5bd14f71427d1e84f3dd0314c0f7b2291e5b200ac8c7c3b92560405160405180910390a45050565b600080610ffc83610e7e565b90508073ffffffffffffffffffffffffffffffffffffffff168473ffffffffffffffffffffffffffffffffffffffff16148061103e575061103d8185610c43565b5b8061107c57508373ffffffffffffffffffffffffffffffffffffffff16611064846105c7565b73ffffffffffffffffffffffffffffffffffffffff16145b91505092915050565b8273ffffffffffffffffffffffffffffffffffffffff166110a582610e7e565b73ffffffffffffffffffffffffffffffffffffffff16146110fb576040517f08c379a00000000000000000000000000000000000000000000000000000000081526004016110f290612614565b60405180910390fd5b600073ffffffffffffffffffffffffffffffffffffffff168273ffffffffffffffffffffffffffffffffffffffff160361116a576040517f08c379a0000000000000000000000000000000000000000000000000000000008152600401611161906126a6565b60405180910390fd5b611175838383611696565b611180600082610f37565b6001600360008573ffffffffffffffffffffffffffffffffffffffff1673ffffffffffffffffffffffffffffffffffffffff16815260200190815260200160002060008282546111d091906126c6565b925050819055506001600360008473ffffffffffffffffffffffffffffffffffffffff1673ffffffffffffffffffffffffffffffffffffffff168152602001908152602001600020600082825461122791906123ee565b92505081905550816002600083815260200190815260200160002060006101000a81548173ffffffffffffffffffffffffffffffffffffffff021916908373ffffffffffffffffffffffffffffffffffffffff160217905550808273ffffffffffffffffffffffffffffffffffffffff168473ffffffffffffffffffffffffffffffffffffffff167fddf252ad1be2c89b69c2b068fc378daa952ba7f163c4a11628f55a4df523b3ef60405160405180910390a46112e683838361169b565b505050565b8173ffffffffffffffffffffffffffffffffffffffff168373ffffffffffffffffffffffffffffffffffffffff1603611359576040517f08c379a000000000000000000000000000000000000000000000000000000000815260040161135090612746565b60405180910390fd5b80600560008573ffffffffffffffffffffffffffffffffffffffff1673ffffffffffffffffffffffffffffffffffffffff16815260200190815260200160002060008473ffffffffffffffffffffffffffffffffffffffff1673ffffffffffffffffffffffffffffffffffffffff16815260200190815260200160002060006101000a81548160ff0219169083151502179055508173ffffffffffffffffffffffffffffffffffffffff168373ffffffffffffffffffffffffffffffffffffffff167f17307eab39ab6107e8899845ad3d59bd9653f200f220920489ca2b5937696c318360405161144a91906118fe565b60405180910390a3505050565b611462848484611085565b61146e848484846116a0565b6114ad576040517f08c379a00000000000000000000000000000000000000000000000000000000081526004016114a4906127d8565b60405180910390fd5b50505050565b606060405180602001604052806000815250905090565b606060008203611511576040518060400160405280600181526020017f30000000000000000000000000000000000000000000000000000000000000008152509050611625565b600082905060005b6000821461154357808061152c90612444565b915050600a8261153c9190612827565b9150611519565b60008167ffffffffffffffff81111561155f5761155e611cb8565b5b6040519080825280601f01601f1916602001820160405280156115915781602001600182028036833780820191505090505b5090505b6000851461161e576001826115aa91906126c6565b9150600a856115b99190612858565b60306115c591906123ee565b60f81b8183815181106115db576115da612205565b5b60200101907effffffffffffffffffffffffffffffffffffffffffffffffffffffffffffff1916908160001a905350600a856116179190612827565b9450611595565b8093505050505b919050565b60008073ffffffffffffffffffffffffffffffffffffffff166002600084815260200190815260200160002060009054906101000a900473ffffffffffffffffffffffffffffffffffffffff1673ffffffffffffffffffffffffffffffffffffffff1614159050919050565b505050565b505050565b60006116c18473ffffffffffffffffffffffffffffffffffffffff16611827565b1561181a578373ffffffffffffffffffffffffffffffffffffffff1663150b7a026116ea610f2f565b8786866040518563ffffffff1660e01b815260040161170c94939291906128de565b6020604051808303816000875af192505050801561174857506040513d601f19601f82011682018060405250810190611745919061293f565b60015b6117ca573d8060008114611778576040519150601f19603f3d011682016040523d82523d6000602084013e61177d565b606091505b5060008151036117c2576040517f08c379a00000000000000000000000000000000000000000000000000000000081526004016117b9906127d8565b60405180910390fd5b805181602001fd5b63150b7a0260e01b7bffffffffffffffffffffffffffffffffffffffffffffffffffffffff1916817bffffffffffffffffffffffffffffffffffffffffffffffffffffffff19161491505061181f565b600190505b949350505050565b6000808273ffffffffffffffffffffffffffffffffffffffff163b119050919050565b6000604051905090565b600080fd5b600080fd5b60007fffffffff0000000000000000000000000000000000000000000000000000000082169050919050565b6118938161185e565b811461189e57600080fd5b50565b6000813590506118b08161188a565b92915050565b6000602082840312156118cc576118cb611854565b5b60006118da848285016118a1565b91505092915050565b60008115159050919050565b6118f8816118e3565b82525050565b600060208201905061191360008301846118ef565b92915050565b600073ffffffffffffffffffffffffffffffffffffffff82169050919050565b600061194482611919565b9050919050565b61195481611939565b811461195f57600080fd5b50565b6000813590506119718161194b565b92915050565b6000819050919050565b61198a81611977565b811461199557600080fd5b50565b6000813590506119a781611981565b92915050565b600080604083850312156119c4576119c3611854565b5b60006119d285828601611962565b92505060206119e385828601611998565b9150509250929050565b6119f681611977565b82525050565b6000602082019050611a1160008301846119ed565b92915050565b600081519050919050565b600082825260208201905092915050565b60005b83811015611a51578082015181840152602081019050611a36565b83811115611a60576000848401525b50505050565b6000601f19601f8301169050919050565b6000611a8282611a17565b611a8c8185611a22565b9350611a9c818560208601611a33565b611aa581611a66565b840191505092915050565b60006020820190508181036000830152611aca8184611a77565b905092915050565b600060208284031215611ae857611ae7611854565b5b6000611af684828501611998565b91505092915050565b611b0881611939565b82525050565b6000602082019050611b236000830184611aff565b92915050565b600080600060608486031215611b4257611b41611854565b5b6000611b5086828701611962565b9350506020611b6186828701611962565b9250506040611b7286828701611998565b9150509250925092565b60006fffffffffffffffffffffffffffffffff82169050919050565b611ba181611b7c565b82525050565b6000602082019050611bbc6000830184611b98565b92915050565b600060208284031215611bd857611bd7611854565b5b6000611be684828501611962565b91505092915050565b600060a082019050611c046000830188611b98565b611c116020830187611b98565b611c1e6040830186611b98565b611c2b6060830185611aff565b611c3860808301846119ed565b9695505050505050565b611c4b816118e3565b8114611c5657600080fd5b50565b600081359050611c6881611c42565b92915050565b60008060408385031215611c8557611c84611854565b5b6000611c9385828601611962565b9250506020611ca485828601611c59565b9150509250929050565b600080fd5b600080fd5b7f4e487b7100000000000000000000000000000000000000000000000000000000600052604160045260246000fd5b611cf082611a66565b810181811067ffffffffffffffff82111715611d0f57611d0e611cb8565b5b80604052505050565b6000611d2261184a565b9050611d2e8282611ce7565b919050565b600067ffffffffffffffff821115611d4e57611d4d611cb8565b5b611d5782611a66565b9050602081019050919050565b82818337600083830152505050565b6000611d86611d8184611d33565b611d18565b905082815260208101848484011115611da257611da1611cb3565b5b611dad848285611d64565b509392505050565b600082601f830112611dca57611dc9611cae565b5b8135611dda848260208601611d73565b91505092915050565b60008060008060808587031215611dfd57611dfc611854565b5b6000611e0b87828801611962565b9450506020611e1c87828801611962565b9350506040611e2d87828801611998565b925050606085013567ffffffffffffffff811115611e4e57611e4d611859565b5b611e5a87828801611db5565b91505092959194509250565b600080fd5b611e7481611b7c565b8114611e7f57600080fd5b50565b600081359050611e9181611e6b565b92915050565b600060a08284031215611ead57611eac611e66565b5b611eb760a0611d18565b90506000611ec784828501611e82565b6000830152506020611edb84828501611e82565b6020830152506040611eef84828501611e82565b6040830152506060611f0384828501611962565b6060830152506080611f1784828501611998565b60808301525092915050565b600060a08284031215611f3957611f38611854565b5b6000611f4784828501611e97565b91505092915050565b60008060408385031215611f6757611f66611854565b5b6000611f7585828601611962565b9250506020611f8685828601611962565b9150509250929050565b6000611f9b82611919565b9050919050565b611fab81611f90565b82525050565b6000606082019050611fc66000830186611aff565b611fd36020830185611fa2565b8181036040830152611fe58184611a77565b9050949350505050565b7f4e487b7100000000000000000000000000000000000000000000000000000000600052602260045260246000fd5b6000600282049050600182168061203657607f821691505b60208210810361204957612048611fef565b5b50919050565b7f4552433732313a20617070726f76616c20746f2063757272656e74206f776e6560008201527f7200000000000000000000000000000000000000000000000000000000000000602082015250565b60006120ab602183611a22565b91506120b68261204f565b604082019050919050565b600060208201905081810360008301526120da8161209e565b9050919050565b7f4552433732313a20617070726f76652063616c6c6572206973206e6f7420746f60008201527f6b656e206f776e6572206e6f7220617070726f76656420666f7220616c6c0000602082015250565b600061213d603e83611a22565b9150612148826120e1565b604082019050919050565b6000602082019050818103600083015261216c81612130565b9050919050565b7f4552433732313a2063616c6c6572206973206e6f7420746f6b656e206f776e6560008201527f72206e6f7220617070726f766564000000000000000000000000000000000000602082015250565b60006121cf602e83611a22565b91506121da82612173565b604082019050919050565b600060208201905081810360008301526121fe816121c2565b9050919050565b7f4e487b7100000000000000000000000000000000000000000000000000000000600052603260045260246000fd5b7f4e487b7100000000000000000000000000000000000000000000000000000000600052601160045260246000fd5b60008160011c9050919050565b6000808291508390505b60018511156122ba5780860481111561229657612295612234565b5b60018516156122a55780820291505b80810290506122b385612263565b945061227a565b94509492505050565b6000826122d3576001905061238f565b816122e1576000905061238f565b81600181146122f7576002811461230157612330565b600191505061238f565b60ff84111561231357612312612234565b5b8360020a91508482111561232a57612329612234565b5b5061238f565b5060208310610133831016604e8410600b84101617156123655782820a9050838111156123605761235f612234565b5b61238f565b6123728484846001612270565b9250905081840481111561238957612388612234565b5b81810290505b9392505050565b600060ff82169050919050565b60006123ae82611977565b91506123b983612396565b92506123e67fffffffffffffffffffffffffffffffffffffffffffffffffffffffffffffffff84846122c3565b905092915050565b60006123f982611977565b915061240483611977565b9250827fffffffffffffffffffffffffffffffffffffffffffffffffffffffffffffffff0382111561243957612438612234565b5b828201905092915050565b600061244f82611977565b91507fffffffffffffffffffffffffffffffffffffffffffffffffffffffffffffffff820361248157612480612234565b5b600182019050919050565b600061249782611b7c565b91506124a283611b7c565b9250816fffffffffffffffffffffffffffffffff04831182151516156124cb576124ca612234565b5b828202905092915050565b600081905092915050565b60006124ec82611a17565b6124f681856124d6565b9350612506818560208601611a33565b80840191505092915050565b600061251e82856124e1565b915061252a82846124e1565b91508190509392505050565b7f4552433732313a20696e76616c696420746f6b656e2049440000000000000000600082015250565b600061256c601883611a22565b915061257782612536565b602082019050919050565b6000602082019050818103600083015261259b8161255f565b9050919050565b7f4552433732313a207472616e736665722066726f6d20696e636f72726563742060008201527f6f776e6572000000000000000000000000000000000000000000000000000000602082015250565b60006125fe602583611a22565b9150612609826125a2565b604082019050919050565b6000602082019050818103600083015261262d816125f1565b9050919050565b7f4552433732313a207472616e7366657220746f20746865207a65726f2061646460008201527f7265737300000000000000000000000000000000000000000000000000000000602082015250565b6000612690602483611a22565b915061269b82612634565b604082019050919050565b600060208201905081810360008301526126bf81612683565b9050919050565b60006126d182611977565b91506126dc83611977565b9250828210156126ef576126ee612234565b5b828203905092915050565b7f4552433732313a20617070726f766520746f2063616c6c657200000000000000600082015250565b6000612730601983611a22565b915061273b826126fa565b602082019050919050565b6000602082019050818103600083015261275f81612723565b9050919050565b7f4552433732313a207472616e7366657220746f206e6f6e20455243373231526560008201527f63656976657220696d706c656d656e7465720000000000000000000000000000602082015250565b60006127c2603283611a22565b91506127cd82612766565b604082019050919050565b600060208201905081810360008301526127f1816127b5565b9050919050565b7f4e487b7100000000000000000000000000000000000000000000000000000000600052601260045260246000fd5b600061283282611977565b915061283d83611977565b92508261284d5761284c6127f8565b5b828204905092915050565b600061286382611977565b915061286e83611977565b92508261287e5761287d6127f8565b5b828206905092915050565b600081519050919050565b600082825260208201905092915050565b60006128b082612889565b6128ba8185612894565b93506128ca818560208601611a33565b6128d381611a66565b840191505092915050565b60006080820190506128f36000830187611aff565b6129006020830186611aff565b61290d60408301856119ed565b818103606083015261291f81846128a5565b905095945050505050565b6000815190506129398161188a565b92915050565b60006020828403121561295557612954611854565b5b60006129638482850161292a565b9150509291505056fea26469706673582212208e4046236145ea101bdcbeb5f35650617195cca60a8700a8c9f39c491827503364736f6c634300080f0033",
  "immutableReferences": {},
  "source": "pragma solidity ^0.8;\r\npragma experimental ABIEncoderV2;\r\n\r\nimport \"@openzeppelin/contracts/token/ERC721/ERC721.sol\";\r\n\r\ncontract blockporb is ERC721(\"HelloNft\", \"HNFT\") {\r\n    // property struct\r\n    // TODO rename, Block?\r\n    struct Property {\r\n        uint128 x;\r\n        uint128 y;\r\n        uint128 size;\r\n        address owner;\r\n        uint256 propertyID;\r\n    }\r\n\r\n    //Owner struct\r\n    struct Owner {\r\n        address taxID;\r\n        address payable etheriumID;\r\n        string name;\r\n    }\r\n\r\n\r\n    /*** data structures ***/\r\n    // id to property struct\r\n    mapping(uint256 => Property) public idToProperties;\r\n    // owner address to id list\r\n    mapping(address => Owner) public idToOwner;\r\n    // TODO maybe nested mapping?\r\n    mapping(address => uint256[]) public ownerToPropertyList;\r\n\r\n    /*** events ***/\r\n    //TODO compare https://stackoverflow.com/questions/67485324/solidity-typeerror-overriding-function-is-missing-override-specifier\r\n    // either inherit ERC721 or implement these events\r\n    //event Transfer(address indexed _from, address indexed _to, uint256 indexed _tokenId);\r\n    //event Approval(address indexed _owner, address indexed _approved, uint256 indexed _tokenId);\r\n    //event ApprovalForAll(address indexed _owner, address indexed _operator, bool _approved);\r\n\r\n    /*** own functions ***/\r\n    // assign initial property to caller of constructor\r\n    constructor() public {\r\n        Property memory init = Property(0, 0, maxSize(), msg.sender, 0);\r\n        addStructToAddress(init, msg.sender);\r\n        // TODO save msg.sender as authority\r\n    }\r\n\r\n    // return the maximum size a property object can have\r\n    function maxSize() public view returns (uint128) {\r\n        // half of max uint256 because id is uint256\r\n        return 2 ** 128 - 1;\r\n    }\r\n\r\n    // create ID by writing x and y in one variable which produces unique identifier\r\n    function getId(Property memory prob) public returns (uint256) {\r\n        uint256 id = prob.y * maxSize();\r\n        id = id & prob.x;\r\n        return id;\r\n    }\r\n\r\n    // convinience function to add a Property to an address in all relevant data structures\r\n    function addStructToAddress(Property memory prob, address owner) private {\r\n        prob.owner = owner;\r\n        uint256 id = getId(prob);\r\n        idToProperties[id] = prob;\r\n\r\n        uint256[] storage list = ownerToPropertyList[owner];\r\n        list.push(id);\r\n        ownerToPropertyList[owner] = list;\r\n    }\r\n\r\n    // extension of balanceOf returning the total size of the owner's property\r\n    function areaBalanceOf(address _owner) external view returns (uint256) {\r\n        uint256[] memory list = ownerToPropertyList[_owner];\r\n        uint256 totalArea = 0;\r\n        for (uint i=0; i<list.length; i++) {\r\n            uint256 iArea = idToProperties[list[i]].size;\r\n            totalArea += iArea ** 2;\r\n        }\r\n        return totalArea;\r\n    }\r\n\r\n    /*** ERC721 functions ***/\r\n    // number of tokens for given owner\r\n    function balanceOf(address _owner) public override view returns (uint256) {\r\n        uint256[] memory list = ownerToPropertyList[_owner];\r\n        return list.length;\r\n    }\r\n    // owner for property\r\n    function ownerOf(uint256 _tokenId) public override view returns (address) {\r\n        return idToProperties[_tokenId].owner;\r\n    }\r\n\r\n    // function for the land registry to registry owners\r\n    function registrateOwner(address _taxID, address payable _etheriumID, string memory _name) private returns (bool) {\r\n            idToOwner[_taxID] = Owner(_taxID, _etheriumID, _name);\r\n            return true;\r\n    }\r\n\r\n\r\n    // TODO transfer\r\n\r\n}\r\n",
  "sourcePath": "C:\\Users\\JonasTrappe\\Documents\\GitHub\\blockprop\\contracts\\blockprob_prototype.sol",
  "compiler": {
    "name": "solc",
    "version": "0.8.15+commit.e14f2714.Emscripten.clang"
  },
  "schemaVersion": "3.4.8",
  "updatedAt": "2022-07-07T20:47:04.060Z",
  "networkType": "ethereum",
  "devdoc": {
    "kind": "dev",
    "methods": {
      "approve(address,uint256)": {
        "details": "See {IERC721-approve}."
      },
      "getApproved(uint256)": {
        "details": "See {IERC721-getApproved}."
      },
      "isApprovedForAll(address,address)": {
        "details": "See {IERC721-isApprovedForAll}."
      },
      "name()": {
        "details": "See {IERC721Metadata-name}."
      },
      "safeTransferFrom(address,address,uint256)": {
        "details": "See {IERC721-safeTransferFrom}."
      },
      "safeTransferFrom(address,address,uint256,bytes)": {
        "details": "See {IERC721-safeTransferFrom}."
      },
      "setApprovalForAll(address,bool)": {
        "details": "See {IERC721-setApprovalForAll}."
      },
      "supportsInterface(bytes4)": {
        "details": "See {IERC165-supportsInterface}."
      },
      "symbol()": {
        "details": "See {IERC721Metadata-symbol}."
      },
      "tokenURI(uint256)": {
        "details": "See {IERC721Metadata-tokenURI}."
      },
      "transferFrom(address,address,uint256)": {
        "details": "See {IERC721-transferFrom}."
      }
    },
    "version": 1
  },
  "userdoc": {
    "kind": "user",
    "methods": {},
    "version": 1
  }
}