{
  "contractName": "Fantom721Collection",
  "abi": [
    {
      "inputs": [],
      "stateMutability": "nonpayable",
      "type": "constructor"
    },
    {
      "anonymous": false,
      "inputs": [
        {
          "indexed": true,
          "internalType": "address",
          "name": "owner",
          "type": "address"
        },
        {
          "indexed": true,
          "internalType": "address",
          "name": "approved",
          "type": "address"
        },
        {
          "indexed": true,
          "internalType": "uint256",
          "name": "tokenId",
          "type": "uint256"
        }
      ],
      "name": "Approval",
      "type": "event"
    },
    {
      "anonymous": false,
      "inputs": [
        {
          "indexed": true,
          "internalType": "address",
          "name": "owner",
          "type": "address"
        },
        {
          "indexed": true,
          "internalType": "address",
          "name": "operator",
          "type": "address"
        },
        {
          "indexed": false,
          "internalType": "bool",
          "name": "approved",
          "type": "bool"
        }
      ],
      "name": "ApprovalForAll",
      "type": "event"
    },
    {
      "anonymous": false,
      "inputs": [
        {
          "indexed": true,
          "internalType": "address",
          "name": "from",
          "type": "address"
        },
        {
          "indexed": true,
          "internalType": "address",
          "name": "to",
          "type": "address"
        },
        {
          "indexed": true,
          "internalType": "uint256",
          "name": "tokenId",
          "type": "uint256"
        }
      ],
      "name": "Transfer",
      "type": "event"
    },
    {
      "inputs": [
        {
          "internalType": "address",
          "name": "to",
          "type": "address"
        },
        {
          "internalType": "uint256",
          "name": "tokenId",
          "type": "uint256"
        }
      ],
      "name": "approve",
      "outputs": [],
      "stateMutability": "nonpayable",
      "type": "function"
    },
    {
      "inputs": [
        {
          "internalType": "address",
          "name": "owner",
          "type": "address"
        }
      ],
      "name": "balanceOf",
      "outputs": [
        {
          "internalType": "uint256",
          "name": "",
          "type": "uint256"
        }
      ],
      "stateMutability": "view",
      "type": "function"
    },
    {
      "inputs": [
        {
          "internalType": "uint256",
          "name": "tokenId",
          "type": "uint256"
        }
      ],
      "name": "getApproved",
      "outputs": [
        {
          "internalType": "address",
          "name": "",
          "type": "address"
        }
      ],
      "stateMutability": "view",
      "type": "function"
    },
    {
      "inputs": [
        {
          "internalType": "address",
          "name": "owner",
          "type": "address"
        },
        {
          "internalType": "address",
          "name": "operator",
          "type": "address"
        }
      ],
      "name": "isApprovedForAll",
      "outputs": [
        {
          "internalType": "bool",
          "name": "",
          "type": "bool"
        }
      ],
      "stateMutability": "view",
      "type": "function"
    },
    {
      "inputs": [],
      "name": "name",
      "outputs": [
        {
          "internalType": "string",
          "name": "",
          "type": "string"
        }
      ],
      "stateMutability": "view",
      "type": "function"
    },
    {
      "inputs": [
        {
          "internalType": "uint256",
          "name": "tokenId",
          "type": "uint256"
        }
      ],
      "name": "ownerOf",
      "outputs": [
        {
          "internalType": "address",
          "name": "",
          "type": "address"
        }
      ],
      "stateMutability": "view",
      "type": "function"
    },
    {
      "inputs": [
        {
          "internalType": "address",
          "name": "from",
          "type": "address"
        },
        {
          "internalType": "address",
          "name": "to",
          "type": "address"
        },
        {
          "internalType": "uint256",
          "name": "tokenId",
          "type": "uint256"
        }
      ],
      "name": "safeTransferFrom",
      "outputs": [],
      "stateMutability": "nonpayable",
      "type": "function"
    },
    {
      "inputs": [
        {
          "internalType": "address",
          "name": "from",
          "type": "address"
        },
        {
          "internalType": "address",
          "name": "to",
          "type": "address"
        },
        {
          "internalType": "uint256",
          "name": "tokenId",
          "type": "uint256"
        },
        {
          "internalType": "bytes",
          "name": "data",
          "type": "bytes"
        }
      ],
      "name": "safeTransferFrom",
      "outputs": [],
      "stateMutability": "nonpayable",
      "type": "function"
    },
    {
      "inputs": [
        {
          "internalType": "address",
          "name": "operator",
          "type": "address"
        },
        {
          "internalType": "bool",
          "name": "approved",
          "type": "bool"
        }
      ],
      "name": "setApprovalForAll",
      "outputs": [],
      "stateMutability": "nonpayable",
      "type": "function"
    },
    {
      "inputs": [
        {
          "internalType": "bytes4",
          "name": "interfaceId",
          "type": "bytes4"
        }
      ],
      "name": "supportsInterface",
      "outputs": [
        {
          "internalType": "bool",
          "name": "",
          "type": "bool"
        }
      ],
      "stateMutability": "view",
      "type": "function"
    },
    {
      "inputs": [],
      "name": "symbol",
      "outputs": [
        {
          "internalType": "string",
          "name": "",
          "type": "string"
        }
      ],
      "stateMutability": "view",
      "type": "function"
    },
    {
      "inputs": [],
      "name": "tokenCounter",
      "outputs": [
        {
          "internalType": "uint256",
          "name": "",
          "type": "uint256"
        }
      ],
      "stateMutability": "view",
      "type": "function"
    },
    {
      "inputs": [
        {
          "internalType": "uint256",
          "name": "tokenId",
          "type": "uint256"
        }
      ],
      "name": "tokenURI",
      "outputs": [
        {
          "internalType": "string",
          "name": "",
          "type": "string"
        }
      ],
      "stateMutability": "view",
      "type": "function"
    },
    {
      "inputs": [
        {
          "internalType": "address",
          "name": "from",
          "type": "address"
        },
        {
          "internalType": "address",
          "name": "to",
          "type": "address"
        },
        {
          "internalType": "uint256",
          "name": "tokenId",
          "type": "uint256"
        }
      ],
      "name": "transferFrom",
      "outputs": [],
      "stateMutability": "nonpayable",
      "type": "function"
    },
    {
      "inputs": [
        {
          "internalType": "string",
          "name": "tokenURI",
          "type": "string"
        }
      ],
      "name": "createCollectible",
      "outputs": [
        {
          "internalType": "uint256",
          "name": "",
          "type": "uint256"
        }
      ],
      "stateMutability": "nonpayable",
      "type": "function"
    }
  ],
  "bytecode": "0x60806040523480156200001157600080fd5b506040518060400160405280600f81526020017f434f4c4c454354494f4e5f4e414d4500000000000000000000000000000000008152506040518060400160405280601181526020017f434f4c4c454354494f4e5f5449434b455200000000000000000000000000000081525081600090816200008f91906200032c565b508060019081620000a191906200032c565b505050600060078190555062000413565b600081519050919050565b7f4e487b7100000000000000000000000000000000000000000000000000000000600052604160045260246000fd5b7f4e487b7100000000000000000000000000000000000000000000000000000000600052602260045260246000fd5b600060028204905060018216806200013457607f821691505b6020821081036200014a5762000149620000ec565b5b50919050565b60008190508160005260206000209050919050565b60006020601f8301049050919050565b600082821b905092915050565b600060088302620001b47fffffffffffffffffffffffffffffffffffffffffffffffffffffffffffffffff8262000175565b620001c0868362000175565b95508019841693508086168417925050509392505050565b6000819050919050565b6000819050919050565b60006200020d620002076200020184620001d8565b620001e2565b620001d8565b9050919050565b6000819050919050565b6200022983620001ec565b62000241620002388262000214565b84845462000182565b825550505050565b600090565b6200025862000249565b620002658184846200021e565b505050565b5b818110156200028d57620002816000826200024e565b6001810190506200026b565b5050565b601f821115620002dc57620002a68162000150565b620002b18462000165565b81016020851015620002c1578190505b620002d9620002d08562000165565b8301826200026a565b50505b505050565b600082821c905092915050565b60006200030160001984600802620002e1565b1980831691505092915050565b60006200031c8383620002ee565b9150826002028217905092915050565b6200033782620000b2565b67ffffffffffffffff811115620003535762000352620000bd565b5b6200035f82546200011b565b6200036c82828562000291565b600060209050601f831160018114620003a457600084156200038f578287015190505b6200039b85826200030e565b8655506200040b565b601f198416620003b48662000150565b60005b82811015620003de57848901518255600182019150602085019450602081019050620003b7565b86831015620003fe5784890151620003fa601f891682620002ee565b8355505b6001600288020188555050505b505050505050565b612ad580620004236000396000f3fe608060405234801561001057600080fd5b50600436106100f55760003560e01c80636352211e11610097578063b88d4fde11610066578063b88d4fde14610296578063c87b56dd146102b2578063d082e381146102e2578063e985e9c514610300576100f5565b80636352211e146101fc57806370a082311461022c57806395d89b411461025c578063a22cb4651461027a576100f5565b8063095ea7b3116100d3578063095ea7b31461017857806323b872dd1461019457806331f1f3c3146101b057806342842e0e146101e0576100f5565b806301ffc9a7146100fa57806306fdde031461012a578063081812fc14610148575b600080fd5b610114600480360381019061010f919061183c565b610330565b6040516101219190611884565b60405180910390f35b610132610412565b60405161013f9190611938565b60405180910390f35b610162600480360381019061015d9190611990565b6104a4565b60405161016f91906119fe565b60405180910390f35b610192600480360381019061018d9190611a45565b6104ea565b005b6101ae60048036038101906101a99190611a85565b610601565b005b6101ca60048036038101906101c59190611c0d565b610661565b6040516101d79190611c65565b60405180910390f35b6101fa60048036038101906101f59190611a85565b61069b565b005b61021660048036038101906102119190611990565b6106bb565b60405161022391906119fe565b60405180910390f35b61024660048036038101906102419190611c80565b61076c565b6040516102539190611c65565b60405180910390f35b610264610823565b6040516102719190611938565b60405180910390f35b610294600480360381019061028f9190611cd9565b6108b5565b005b6102b060048036038101906102ab9190611dba565b6108cb565b005b6102cc60048036038101906102c79190611990565b61092d565b6040516102d99190611938565b60405180910390f35b6102ea610a3f565b6040516102f79190611c65565b60405180910390f35b61031a60048036038101906103159190611e3d565b610a45565b6040516103279190611884565b60405180910390f35b60007f80ac58cd000000000000000000000000000000000000000000000000000000007bffffffffffffffffffffffffffffffffffffffffffffffffffffffff1916827bffffffffffffffffffffffffffffffffffffffffffffffffffffffff191614806103fb57507f5b5e139f000000000000000000000000000000000000000000000000000000007bffffffffffffffffffffffffffffffffffffffffffffffffffffffff1916827bffffffffffffffffffffffffffffffffffffffffffffffffffffffff1916145b8061040b575061040a82610ad9565b5b9050919050565b60606000805461042190611eac565b80601f016020809104026020016040519081016040528092919081815260200182805461044d90611eac565b801561049a5780601f1061046f5761010080835404028352916020019161049a565b820191906000526020600020905b81548152906001019060200180831161047d57829003601f168201915b5050505050905090565b60006104af82610b43565b6004600083815260200190815260200160002060009054906101000a900473ffffffffffffffffffffffffffffffffffffffff169050919050565b60006104f5826106bb565b90508073ffffffffffffffffffffffffffffffffffffffff168373ffffffffffffffffffffffffffffffffffffffff1603610565576040517f08c379a000000000000000000000000000000000000000000000000000000000815260040161055c90611f4f565b60405180910390fd5b8073ffffffffffffffffffffffffffffffffffffffff16610584610b8e565b73ffffffffffffffffffffffffffffffffffffffff1614806105b357506105b2816105ad610b8e565b610a45565b5b6105f2576040517f08c379a00000000000000000000000000000000000000000000000000000000081526004016105e990611fe1565b60405180910390fd5b6105fc8383610b96565b505050565b61061261060c610b8e565b82610c4f565b610651576040517f08c379a000000000000000000000000000000000000000000000000000000000815260040161064890612073565b60405180910390fd5b61065c838383610ce4565b505050565b60008060075490506106733382610f4a565b61067d8184610f68565b600160075461068c91906120c2565b60078190555080915050919050565b6106b6838383604051806020016040528060008152506108cb565b505050565b6000806002600084815260200190815260200160002060009054906101000a900473ffffffffffffffffffffffffffffffffffffffff169050600073ffffffffffffffffffffffffffffffffffffffff168173ffffffffffffffffffffffffffffffffffffffff1603610763576040517f08c379a000000000000000000000000000000000000000000000000000000000815260040161075a90612164565b60405180910390fd5b80915050919050565b60008073ffffffffffffffffffffffffffffffffffffffff168273ffffffffffffffffffffffffffffffffffffffff16036107dc576040517f08c379a00000000000000000000000000000000000000000000000000000000081526004016107d3906121f6565b60405180910390fd5b600360008373ffffffffffffffffffffffffffffffffffffffff1673ffffffffffffffffffffffffffffffffffffffff168152602001908152602001600020549050919050565b60606001805461083290611eac565b80601f016020809104026020016040519081016040528092919081815260200182805461085e90611eac565b80156108ab5780601f10610880576101008083540402835291602001916108ab565b820191906000526020600020905b81548152906001019060200180831161088e57829003601f168201915b5050505050905090565b6108c76108c0610b8e565b8383610fd5565b5050565b6108dc6108d6610b8e565b83610c4f565b61091b576040517f08c379a000000000000000000000000000000000000000000000000000000000815260040161091290612073565b60405180910390fd5b61092784848484611141565b50505050565b606061093882610b43565b600060066000848152602001908152602001600020805461095890611eac565b80601f016020809104026020016040519081016040528092919081815260200182805461098490611eac565b80156109d15780601f106109a6576101008083540402835291602001916109d1565b820191906000526020600020905b8154815290600101906020018083116109b457829003601f168201915b5050505050905060006109e261119d565b905060008151036109f7578192505050610a3a565b600082511115610a2c578082604051602001610a14929190612252565b60405160208183030381529060405292505050610a3a565b610a35846111b4565b925050505b919050565b60075481565b6000600560008473ffffffffffffffffffffffffffffffffffffffff1673ffffffffffffffffffffffffffffffffffffffff16815260200190815260200160002060008373ffffffffffffffffffffffffffffffffffffffff1673ffffffffffffffffffffffffffffffffffffffff16815260200190815260200160002060009054906101000a900460ff16905092915050565b60007f01ffc9a7000000000000000000000000000000000000000000000000000000007bffffffffffffffffffffffffffffffffffffffffffffffffffffffff1916827bffffffffffffffffffffffffffffffffffffffffffffffffffffffff1916149050919050565b610b4c8161121c565b610b8b576040517f08c379a0000000000000000000000000000000000000000000000000000000008152600401610b8290612164565b60405180910390fd5b50565b600033905090565b816004600083815260200190815260200160002060006101000a81548173ffffffffffffffffffffffffffffffffffffffff021916908373ffffffffffffffffffffffffffffffffffffffff160217905550808273ffffffffffffffffffffffffffffffffffffffff16610c09836106bb565b73ffffffffffffffffffffffffffffffffffffffff167f8c5be1e5ebec7d5bd14f71427d1e84f3dd0314c0f7b2291e5b200ac8c7c3b92560405160405180910390a45050565b600080610c5b836106bb565b90508073ffffffffffffffffffffffffffffffffffffffff168473ffffffffffffffffffffffffffffffffffffffff161480610c9d5750610c9c8185610a45565b5b80610cdb57508373ffffffffffffffffffffffffffffffffffffffff16610cc3846104a4565b73ffffffffffffffffffffffffffffffffffffffff16145b91505092915050565b8273ffffffffffffffffffffffffffffffffffffffff16610d04826106bb565b73ffffffffffffffffffffffffffffffffffffffff1614610d5a576040517f08c379a0000000000000000000000000000000000000000000000000000000008152600401610d51906122e8565b60405180910390fd5b600073ffffffffffffffffffffffffffffffffffffffff168273ffffffffffffffffffffffffffffffffffffffff1603610dc9576040517f08c379a0000000000000000000000000000000000000000000000000000000008152600401610dc09061237a565b60405180910390fd5b610dd4838383611288565b610ddf600082610b96565b6001600360008573ffffffffffffffffffffffffffffffffffffffff1673ffffffffffffffffffffffffffffffffffffffff1681526020019081526020016000206000828254610e2f919061239a565b925050819055506001600360008473ffffffffffffffffffffffffffffffffffffffff1673ffffffffffffffffffffffffffffffffffffffff1681526020019081526020016000206000828254610e8691906120c2565b92505081905550816002600083815260200190815260200160002060006101000a81548173ffffffffffffffffffffffffffffffffffffffff021916908373ffffffffffffffffffffffffffffffffffffffff160217905550808273ffffffffffffffffffffffffffffffffffffffff168473ffffffffffffffffffffffffffffffffffffffff167fddf252ad1be2c89b69c2b068fc378daa952ba7f163c4a11628f55a4df523b3ef60405160405180910390a4610f4583838361128d565b505050565b610f64828260405180602001604052806000815250611292565b5050565b610f718261121c565b610fb0576040517f08c379a0000000000000000000000000000000000000000000000000000000008152600401610fa790612440565b60405180910390fd5b80600660008481526020019081526020016000209081610fd0919061260c565b505050565b8173ffffffffffffffffffffffffffffffffffffffff168373ffffffffffffffffffffffffffffffffffffffff1603611043576040517f08c379a000000000000000000000000000000000000000000000000000000000815260040161103a9061272a565b60405180910390fd5b80600560008573ffffffffffffffffffffffffffffffffffffffff1673ffffffffffffffffffffffffffffffffffffffff16815260200190815260200160002060008473ffffffffffffffffffffffffffffffffffffffff1673ffffffffffffffffffffffffffffffffffffffff16815260200190815260200160002060006101000a81548160ff0219169083151502179055508173ffffffffffffffffffffffffffffffffffffffff168373ffffffffffffffffffffffffffffffffffffffff167f17307eab39ab6107e8899845ad3d59bd9653f200f220920489ca2b5937696c31836040516111349190611884565b60405180910390a3505050565b61114c848484610ce4565b611158848484846112ed565b611197576040517f08c379a000000000000000000000000000000000000000000000000000000000815260040161118e906127bc565b60405180910390fd5b50505050565b606060405180602001604052806000815250905090565b60606111bf82610b43565b60006111c961119d565b905060008151116111e95760405180602001604052806000815250611214565b806111f384611474565b604051602001611204929190612252565b6040516020818303038152906040525b915050919050565b60008073ffffffffffffffffffffffffffffffffffffffff166002600084815260200190815260200160002060009054906101000a900473ffffffffffffffffffffffffffffffffffffffff1673ffffffffffffffffffffffffffffffffffffffff1614159050919050565b505050565b505050565b61129c83836115d4565b6112a960008484846112ed565b6112e8576040517f08c379a00000000000000000000000000000000000000000000000000000000081526004016112df906127bc565b60405180910390fd5b505050565b600061130e8473ffffffffffffffffffffffffffffffffffffffff166117ad565b15611467578373ffffffffffffffffffffffffffffffffffffffff1663150b7a02611337610b8e565b8786866040518563ffffffff1660e01b81526004016113599493929190612831565b6020604051808303816000875af192505050801561139557506040513d601f19601f820116820180604052508101906113929190612892565b60015b611417573d80600081146113c5576040519150601f19603f3d011682016040523d82523d6000602084013e6113ca565b606091505b50600081510361140f576040517f08c379a0000000000000000000000000000000000000000000000000000000008152600401611406906127bc565b60405180910390fd5b805181602001fd5b63150b7a0260e01b7bffffffffffffffffffffffffffffffffffffffffffffffffffffffff1916817bffffffffffffffffffffffffffffffffffffffffffffffffffffffff19161491505061146c565b600190505b949350505050565b6060600082036114bb576040518060400160405280600181526020017f300000000000000000000000000000000000000000000000000000000000000081525090506115cf565b600082905060005b600082146114ed5780806114d6906128bf565b915050600a826114e69190612936565b91506114c3565b60008167ffffffffffffffff81111561150957611508611ae2565b5b6040519080825280601f01601f19166020018201604052801561153b5781602001600182028036833780820191505090505b5090505b600085146115c857600182611554919061239a565b9150600a856115639190612967565b603061156f91906120c2565b60f81b81838151811061158557611584612998565b5b60200101907effffffffffffffffffffffffffffffffffffffffffffffffffffffffffffff1916908160001a905350600a856115c19190612936565b945061153f565b8093505050505b919050565b600073ffffffffffffffffffffffffffffffffffffffff168273ffffffffffffffffffffffffffffffffffffffff1603611643576040517f08c379a000000000000000000000000000000000000000000000000000000000815260040161163a90612a13565b60405180910390fd5b61164c8161121c565b1561168c576040517f08c379a000000000000000000000000000000000000000000000000000000000815260040161168390612a7f565b60405180910390fd5b61169860008383611288565b6001600360008473ffffffffffffffffffffffffffffffffffffffff1673ffffffffffffffffffffffffffffffffffffffff16815260200190815260200160002060008282546116e891906120c2565b92505081905550816002600083815260200190815260200160002060006101000a81548173ffffffffffffffffffffffffffffffffffffffff021916908373ffffffffffffffffffffffffffffffffffffffff160217905550808273ffffffffffffffffffffffffffffffffffffffff16600073ffffffffffffffffffffffffffffffffffffffff167fddf252ad1be2c89b69c2b068fc378daa952ba7f163c4a11628f55a4df523b3ef60405160405180910390a46117a96000838361128d565b5050565b6000808273ffffffffffffffffffffffffffffffffffffffff163b119050919050565b6000604051905090565b600080fd5b600080fd5b60007fffffffff0000000000000000000000000000000000000000000000000000000082169050919050565b611819816117e4565b811461182457600080fd5b50565b60008135905061183681611810565b92915050565b600060208284031215611852576118516117da565b5b600061186084828501611827565b91505092915050565b60008115159050919050565b61187e81611869565b82525050565b60006020820190506118996000830184611875565b92915050565b600081519050919050565b600082825260208201905092915050565b60005b838110156118d95780820151818401526020810190506118be565b838111156118e8576000848401525b50505050565b6000601f19601f8301169050919050565b600061190a8261189f565b61191481856118aa565b93506119248185602086016118bb565b61192d816118ee565b840191505092915050565b6000602082019050818103600083015261195281846118ff565b905092915050565b6000819050919050565b61196d8161195a565b811461197857600080fd5b50565b60008135905061198a81611964565b92915050565b6000602082840312156119a6576119a56117da565b5b60006119b48482850161197b565b91505092915050565b600073ffffffffffffffffffffffffffffffffffffffff82169050919050565b60006119e8826119bd565b9050919050565b6119f8816119dd565b82525050565b6000602082019050611a1360008301846119ef565b92915050565b611a22816119dd565b8114611a2d57600080fd5b50565b600081359050611a3f81611a19565b92915050565b60008060408385031215611a5c57611a5b6117da565b5b6000611a6a85828601611a30565b9250506020611a7b8582860161197b565b9150509250929050565b600080600060608486031215611a9e57611a9d6117da565b5b6000611aac86828701611a30565b9350506020611abd86828701611a30565b9250506040611ace8682870161197b565b9150509250925092565b600080fd5b600080fd5b7f4e487b7100000000000000000000000000000000000000000000000000000000600052604160045260246000fd5b611b1a826118ee565b810181811067ffffffffffffffff82111715611b3957611b38611ae2565b5b80604052505050565b6000611b4c6117d0565b9050611b588282611b11565b919050565b600067ffffffffffffffff821115611b7857611b77611ae2565b5b611b81826118ee565b9050602081019050919050565b82818337600083830152505050565b6000611bb0611bab84611b5d565b611b42565b905082815260208101848484011115611bcc57611bcb611add565b5b611bd7848285611b8e565b509392505050565b600082601f830112611bf457611bf3611ad8565b5b8135611c04848260208601611b9d565b91505092915050565b600060208284031215611c2357611c226117da565b5b600082013567ffffffffffffffff811115611c4157611c406117df565b5b611c4d84828501611bdf565b91505092915050565b611c5f8161195a565b82525050565b6000602082019050611c7a6000830184611c56565b92915050565b600060208284031215611c9657611c956117da565b5b6000611ca484828501611a30565b91505092915050565b611cb681611869565b8114611cc157600080fd5b50565b600081359050611cd381611cad565b92915050565b60008060408385031215611cf057611cef6117da565b5b6000611cfe85828601611a30565b9250506020611d0f85828601611cc4565b9150509250929050565b600067ffffffffffffffff821115611d3457611d33611ae2565b5b611d3d826118ee565b9050602081019050919050565b6000611d5d611d5884611d19565b611b42565b905082815260208101848484011115611d7957611d78611add565b5b611d84848285611b8e565b509392505050565b600082601f830112611da157611da0611ad8565b5b8135611db1848260208601611d4a565b91505092915050565b60008060008060808587031215611dd457611dd36117da565b5b6000611de287828801611a30565b9450506020611df387828801611a30565b9350506040611e048782880161197b565b925050606085013567ffffffffffffffff811115611e2557611e246117df565b5b611e3187828801611d8c565b91505092959194509250565b60008060408385031215611e5457611e536117da565b5b6000611e6285828601611a30565b9250506020611e7385828601611a30565b9150509250929050565b7f4e487b7100000000000000000000000000000000000000000000000000000000600052602260045260246000fd5b60006002820490506001821680611ec457607f821691505b602082108103611ed757611ed6611e7d565b5b50919050565b7f4552433732313a20617070726f76616c20746f2063757272656e74206f776e6560008201527f7200000000000000000000000000000000000000000000000000000000000000602082015250565b6000611f396021836118aa565b9150611f4482611edd565b604082019050919050565b60006020820190508181036000830152611f6881611f2c565b9050919050565b7f4552433732313a20617070726f76652063616c6c6572206973206e6f7420746f60008201527f6b656e206f776e6572206e6f7220617070726f76656420666f7220616c6c0000602082015250565b6000611fcb603e836118aa565b9150611fd682611f6f565b604082019050919050565b60006020820190508181036000830152611ffa81611fbe565b9050919050565b7f4552433732313a2063616c6c6572206973206e6f7420746f6b656e206f776e6560008201527f72206e6f7220617070726f766564000000000000000000000000000000000000602082015250565b600061205d602e836118aa565b915061206882612001565b604082019050919050565b6000602082019050818103600083015261208c81612050565b9050919050565b7f4e487b7100000000000000000000000000000000000000000000000000000000600052601160045260246000fd5b60006120cd8261195a565b91506120d88361195a565b9250827fffffffffffffffffffffffffffffffffffffffffffffffffffffffffffffffff0382111561210d5761210c612093565b5b828201905092915050565b7f4552433732313a20696e76616c696420746f6b656e2049440000000000000000600082015250565b600061214e6018836118aa565b915061215982612118565b602082019050919050565b6000602082019050818103600083015261217d81612141565b9050919050565b7f4552433732313a2061646472657373207a65726f206973206e6f74206120766160008201527f6c6964206f776e65720000000000000000000000000000000000000000000000602082015250565b60006121e06029836118aa565b91506121eb82612184565b604082019050919050565b6000602082019050818103600083015261220f816121d3565b9050919050565b600081905092915050565b600061222c8261189f565b6122368185612216565b93506122468185602086016118bb565b80840191505092915050565b600061225e8285612221565b915061226a8284612221565b91508190509392505050565b7f4552433732313a207472616e736665722066726f6d20696e636f72726563742060008201527f6f776e6572000000000000000000000000000000000000000000000000000000602082015250565b60006122d26025836118aa565b91506122dd82612276565b604082019050919050565b60006020820190508181036000830152612301816122c5565b9050919050565b7f4552433732313a207472616e7366657220746f20746865207a65726f2061646460008201527f7265737300000000000000000000000000000000000000000000000000000000602082015250565b60006123646024836118aa565b915061236f82612308565b604082019050919050565b6000602082019050818103600083015261239381612357565b9050919050565b60006123a58261195a565b91506123b08361195a565b9250828210156123c3576123c2612093565b5b828203905092915050565b7f45524337323155524953746f726167653a2055524920736574206f66206e6f6e60008201527f6578697374656e7420746f6b656e000000000000000000000000000000000000602082015250565b600061242a602e836118aa565b9150612435826123ce565b604082019050919050565b600060208201905081810360008301526124598161241d565b9050919050565b60008190508160005260206000209050919050565b60006020601f8301049050919050565b600082821b905092915050565b6000600883026124c27fffffffffffffffffffffffffffffffffffffffffffffffffffffffffffffffff82612485565b6124cc8683612485565b95508019841693508086168417925050509392505050565b6000819050919050565b60006125096125046124ff8461195a565b6124e4565b61195a565b9050919050565b6000819050919050565b612523836124ee565b61253761252f82612510565b848454612492565b825550505050565b600090565b61254c61253f565b61255781848461251a565b505050565b5b8181101561257b57612570600082612544565b60018101905061255d565b5050565b601f8211156125c05761259181612460565b61259a84612475565b810160208510156125a9578190505b6125bd6125b585612475565b83018261255c565b50505b505050565b600082821c905092915050565b60006125e3600019846008026125c5565b1980831691505092915050565b60006125fc83836125d2565b9150826002028217905092915050565b6126158261189f565b67ffffffffffffffff81111561262e5761262d611ae2565b5b6126388254611eac565b61264382828561257f565b600060209050601f8311600181146126765760008415612664578287015190505b61266e85826125f0565b8655506126d6565b601f19841661268486612460565b60005b828110156126ac57848901518255600182019150602085019450602081019050612687565b868310156126c957848901516126c5601f8916826125d2565b8355505b6001600288020188555050505b505050505050565b7f4552433732313a20617070726f766520746f2063616c6c657200000000000000600082015250565b60006127146019836118aa565b915061271f826126de565b602082019050919050565b6000602082019050818103600083015261274381612707565b9050919050565b7f4552433732313a207472616e7366657220746f206e6f6e20455243373231526560008201527f63656976657220696d706c656d656e7465720000000000000000000000000000602082015250565b60006127a66032836118aa565b91506127b18261274a565b604082019050919050565b600060208201905081810360008301526127d581612799565b9050919050565b600081519050919050565b600082825260208201905092915050565b6000612803826127dc565b61280d81856127e7565b935061281d8185602086016118bb565b612826816118ee565b840191505092915050565b600060808201905061284660008301876119ef565b61285360208301866119ef565b6128606040830185611c56565b818103606083015261287281846127f8565b905095945050505050565b60008151905061288c81611810565b92915050565b6000602082840312156128a8576128a76117da565b5b60006128b68482850161287d565b91505092915050565b60006128ca8261195a565b91507fffffffffffffffffffffffffffffffffffffffffffffffffffffffffffffffff82036128fc576128fb612093565b5b600182019050919050565b7f4e487b7100000000000000000000000000000000000000000000000000000000600052601260045260246000fd5b60006129418261195a565b915061294c8361195a565b92508261295c5761295b612907565b5b828204905092915050565b60006129728261195a565b915061297d8361195a565b92508261298d5761298c612907565b5b828206905092915050565b7f4e487b7100000000000000000000000000000000000000000000000000000000600052603260045260246000fd5b7f4552433732313a206d696e7420746f20746865207a65726f2061646472657373600082015250565b60006129fd6020836118aa565b9150612a08826129c7565b602082019050919050565b60006020820190508181036000830152612a2c816129f0565b9050919050565b7f4552433732313a20746f6b656e20616c7265616479206d696e74656400000000600082015250565b6000612a69601c836118aa565b9150612a7482612a33565b602082019050919050565b60006020820190508181036000830152612a9881612a5c565b905091905056fea264697066735822122083a79ea42ba23f1b1c7f37603ceada7b0232a82d15c943a79eb4acb7b13208b464736f6c634300080f0033",
  "immutableReferences": {},
  "source": "pragma solidity ^0.8;\n\nimport \"@openzeppelin/contracts/token/ERC721/extensions/ERC721URIStorage.sol\";\n\ncontract Fantom721Collection is ERC721URIStorage {\n    uint256 public tokenCounter;\n    constructor () public ERC721 (\"COLLECTION_NAME\", \"COLLECTION_TICKER\"){\n        tokenCounter = 0;\n    }\n\n    function createCollectible(string memory tokenURI) public returns (uint256) {\n        uint256 newItemId = tokenCounter;\n        _safeMint(msg.sender, newItemId);\n        _setTokenURI(newItemId, tokenURI);\n        tokenCounter = tokenCounter + 1;\n        return newItemId;\n    }\n\n}",
  "sourcePath": "/Users/leonhardthyssen/Desktop/Neuer Ordner mit Objekten/BCT/blockprop/contracts/Fantom721Collection.sol",
  "compiler": {
    "name": "solc",
    "version": "0.8.15+commit.e14f2714.Emscripten.clang"
  },
  "schemaVersion": "3.4.8",
  "updatedAt": "2022-07-03T16:24:16.534Z",
  "devdoc": {
    "kind": "dev",
    "methods": {
      "approve(address,uint256)": {
        "details": "See {IERC721-approve}."
      },
      "balanceOf(address)": {
        "details": "See {IERC721-balanceOf}."
      },
      "getApproved(uint256)": {
        "details": "See {IERC721-getApproved}."
      },
      "isApprovedForAll(address,address)": {
        "details": "See {IERC721-isApprovedForAll}."
      },
      "name()": {
        "details": "See {IERC721Metadata-name}."
      },
      "ownerOf(uint256)": {
        "details": "See {IERC721-ownerOf}."
      },
      "safeTransferFrom(address,address,uint256)": {
        "details": "See {IERC721-safeTransferFrom}."
      },
      "safeTransferFrom(address,address,uint256,bytes)": {
        "details": "See {IERC721-safeTransferFrom}."
      },
      "setApprovalForAll(address,bool)": {
        "details": "See {IERC721-setApprovalForAll}."
      },
      "supportsInterface(bytes4)": {
        "details": "See {IERC165-supportsInterface}."
      },
      "symbol()": {
        "details": "See {IERC721Metadata-symbol}."
      },
      "tokenURI(uint256)": {
        "details": "See {IERC721Metadata-tokenURI}."
      },
      "transferFrom(address,address,uint256)": {
        "details": "See {IERC721-transferFrom}."
      }
    },
    "version": 1
  },
  "userdoc": {
    "kind": "user",
    "methods": {},
    "version": 1
  }
}