{
  "contractName": "Hellonft",
  "abi": [
    {
      "anonymous": false,
      "inputs": [
        {
          "indexed": true,
          "internalType": "address",
          "name": "owner",
          "type": "address"
        },
        {
          "indexed": true,
          "internalType": "address",
          "name": "approved",
          "type": "address"
        },
        {
          "indexed": true,
          "internalType": "uint256",
          "name": "tokenId",
          "type": "uint256"
        }
      ],
      "name": "Approval",
      "type": "event"
    },
    {
      "anonymous": false,
      "inputs": [
        {
          "indexed": true,
          "internalType": "address",
          "name": "owner",
          "type": "address"
        },
        {
          "indexed": true,
          "internalType": "address",
          "name": "operator",
          "type": "address"
        },
        {
          "indexed": false,
          "internalType": "bool",
          "name": "approved",
          "type": "bool"
        }
      ],
      "name": "ApprovalForAll",
      "type": "event"
    },
    {
      "anonymous": false,
      "inputs": [
        {
          "indexed": true,
          "internalType": "address",
          "name": "previousOwner",
          "type": "address"
        },
        {
          "indexed": true,
          "internalType": "address",
          "name": "newOwner",
          "type": "address"
        }
      ],
      "name": "OwnershipTransferred",
      "type": "event"
    },
    {
      "anonymous": false,
      "inputs": [
        {
          "indexed": true,
          "internalType": "address",
          "name": "from",
          "type": "address"
        },
        {
          "indexed": true,
          "internalType": "address",
          "name": "to",
          "type": "address"
        },
        {
          "indexed": true,
          "internalType": "uint256",
          "name": "tokenId",
          "type": "uint256"
        }
      ],
      "name": "Transfer",
      "type": "event"
    },
    {
      "inputs": [
        {
          "internalType": "address",
          "name": "to",
          "type": "address"
        },
        {
          "internalType": "uint256",
          "name": "tokenId",
          "type": "uint256"
        }
      ],
      "name": "approve",
      "outputs": [],
      "stateMutability": "nonpayable",
      "type": "function"
    },
    {
      "inputs": [
        {
          "internalType": "address",
          "name": "owner",
          "type": "address"
        }
      ],
      "name": "balanceOf",
      "outputs": [
        {
          "internalType": "uint256",
          "name": "",
          "type": "uint256"
        }
      ],
      "stateMutability": "view",
      "type": "function"
    },
    {
      "inputs": [
        {
          "internalType": "uint256",
          "name": "tokenId",
          "type": "uint256"
        }
      ],
      "name": "getApproved",
      "outputs": [
        {
          "internalType": "address",
          "name": "",
          "type": "address"
        }
      ],
      "stateMutability": "view",
      "type": "function"
    },
    {
      "inputs": [
        {
          "internalType": "address",
          "name": "owner",
          "type": "address"
        },
        {
          "internalType": "address",
          "name": "operator",
          "type": "address"
        }
      ],
      "name": "isApprovedForAll",
      "outputs": [
        {
          "internalType": "bool",
          "name": "",
          "type": "bool"
        }
      ],
      "stateMutability": "view",
      "type": "function"
    },
    {
      "inputs": [],
      "name": "name",
      "outputs": [
        {
          "internalType": "string",
          "name": "",
          "type": "string"
        }
      ],
      "stateMutability": "view",
      "type": "function"
    },
    {
      "inputs": [],
      "name": "owner",
      "outputs": [
        {
          "internalType": "address",
          "name": "",
          "type": "address"
        }
      ],
      "stateMutability": "view",
      "type": "function"
    },
    {
      "inputs": [
        {
          "internalType": "uint256",
          "name": "tokenId",
          "type": "uint256"
        }
      ],
      "name": "ownerOf",
      "outputs": [
        {
          "internalType": "address",
          "name": "",
          "type": "address"
        }
      ],
      "stateMutability": "view",
      "type": "function"
    },
    {
      "inputs": [
        {
          "internalType": "address",
          "name": "",
          "type": "address"
        },
        {
          "internalType": "uint256",
          "name": "",
          "type": "uint256"
        }
      ],
      "name": "ownershipRecord",
      "outputs": [
        {
          "internalType": "uint256",
          "name": "tokenId",
          "type": "uint256"
        },
        {
          "internalType": "uint256",
          "name": "timeStamp",
          "type": "uint256"
        },
        {
          "internalType": "string",
          "name": "tokenURI",
          "type": "string"
        }
      ],
      "stateMutability": "view",
      "type": "function"
    },
    {
      "inputs": [],
      "name": "renounceOwnership",
      "outputs": [],
      "stateMutability": "nonpayable",
      "type": "function"
    },
    {
      "inputs": [
        {
          "internalType": "address",
          "name": "from",
          "type": "address"
        },
        {
          "internalType": "address",
          "name": "to",
          "type": "address"
        },
        {
          "internalType": "uint256",
          "name": "tokenId",
          "type": "uint256"
        }
      ],
      "name": "safeTransferFrom",
      "outputs": [],
      "stateMutability": "nonpayable",
      "type": "function"
    },
    {
      "inputs": [
        {
          "internalType": "address",
          "name": "from",
          "type": "address"
        },
        {
          "internalType": "address",
          "name": "to",
          "type": "address"
        },
        {
          "internalType": "uint256",
          "name": "tokenId",
          "type": "uint256"
        },
        {
          "internalType": "bytes",
          "name": "data",
          "type": "bytes"
        }
      ],
      "name": "safeTransferFrom",
      "outputs": [],
      "stateMutability": "nonpayable",
      "type": "function"
    },
    {
      "inputs": [
        {
          "internalType": "address",
          "name": "operator",
          "type": "address"
        },
        {
          "internalType": "bool",
          "name": "approved",
          "type": "bool"
        }
      ],
      "name": "setApprovalForAll",
      "outputs": [],
      "stateMutability": "nonpayable",
      "type": "function"
    },
    {
      "inputs": [
        {
          "internalType": "bytes4",
          "name": "interfaceId",
          "type": "bytes4"
        }
      ],
      "name": "supportsInterface",
      "outputs": [
        {
          "internalType": "bool",
          "name": "",
          "type": "bool"
        }
      ],
      "stateMutability": "view",
      "type": "function"
    },
    {
      "inputs": [],
      "name": "symbol",
      "outputs": [
        {
          "internalType": "string",
          "name": "",
          "type": "string"
        }
      ],
      "stateMutability": "view",
      "type": "function"
    },
    {
      "inputs": [
        {
          "internalType": "uint256",
          "name": "tokenId",
          "type": "uint256"
        }
      ],
      "name": "tokenURI",
      "outputs": [
        {
          "internalType": "string",
          "name": "",
          "type": "string"
        }
      ],
      "stateMutability": "view",
      "type": "function"
    },
    {
      "inputs": [
        {
          "internalType": "address",
          "name": "from",
          "type": "address"
        },
        {
          "internalType": "address",
          "name": "to",
          "type": "address"
        },
        {
          "internalType": "uint256",
          "name": "tokenId",
          "type": "uint256"
        }
      ],
      "name": "transferFrom",
      "outputs": [],
      "stateMutability": "nonpayable",
      "type": "function"
    },
    {
      "inputs": [
        {
          "internalType": "address",
          "name": "newOwner",
          "type": "address"
        }
      ],
      "name": "transferOwnership",
      "outputs": [],
      "stateMutability": "nonpayable",
      "type": "function"
    },
    {
      "inputs": [
        {
          "internalType": "address",
          "name": "recipient",
          "type": "address"
        }
      ],
      "name": "mintToken",
      "outputs": [],
      "stateMutability": "nonpayable",
      "type": "function"
    }
  ],
  "bytecode": "0x60806040523480156200001157600080fd5b506040518060400160405280600881526020017f48656c6c6f4e66740000000000000000000000000000000000000000000000008152506040518060400160405280600481526020017f484e4654000000000000000000000000000000000000000000000000000000008152506200009e62000092620000ca60201b60201c565b620000d260201b60201c565b8160019081620000af919062000410565b508060029081620000c1919062000410565b505050620004f7565b600033905090565b60008060009054906101000a900473ffffffffffffffffffffffffffffffffffffffff169050816000806101000a81548173ffffffffffffffffffffffffffffffffffffffff021916908373ffffffffffffffffffffffffffffffffffffffff1602179055508173ffffffffffffffffffffffffffffffffffffffff168173ffffffffffffffffffffffffffffffffffffffff167f8be0079c531659141344cd1fd0a4f28419497f9722a3daafe3b4186f6b6457e060405160405180910390a35050565b600081519050919050565b7f4e487b7100000000000000000000000000000000000000000000000000000000600052604160045260246000fd5b7f4e487b7100000000000000000000000000000000000000000000000000000000600052602260045260246000fd5b600060028204905060018216806200021857607f821691505b6020821081036200022e576200022d620001d0565b5b50919050565b60008190508160005260206000209050919050565b60006020601f8301049050919050565b600082821b905092915050565b600060088302620002987fffffffffffffffffffffffffffffffffffffffffffffffffffffffffffffffff8262000259565b620002a4868362000259565b95508019841693508086168417925050509392505050565b6000819050919050565b6000819050919050565b6000620002f1620002eb620002e584620002bc565b620002c6565b620002bc565b9050919050565b6000819050919050565b6200030d83620002d0565b620003256200031c82620002f8565b84845462000266565b825550505050565b600090565b6200033c6200032d565b6200034981848462000302565b505050565b5b8181101562000371576200036560008262000332565b6001810190506200034f565b5050565b601f821115620003c0576200038a8162000234565b620003958462000249565b81016020851015620003a5578190505b620003bd620003b48562000249565b8301826200034e565b50505b505050565b600082821c905092915050565b6000620003e560001984600802620003c5565b1980831691505092915050565b6000620004008383620003d2565b9150826002028217905092915050565b6200041b8262000196565b67ffffffffffffffff811115620004375762000436620001a1565b5b620004438254620001ff565b6200045082828562000375565b600060209050601f83116001811462000488576000841562000473578287015190505b6200047f8582620003f2565b865550620004ef565b601f198416620004988662000234565b60005b82811015620004c2578489015182556001820191506020850194506020810190506200049b565b86831015620004e25784890151620004de601f891682620003d2565b8355505b6001600288020188555050505b505050505050565b612e4580620005076000396000f3fe608060405234801561001057600080fd5b50600436106101165760003560e01c806370a08231116100a2578063a22cb46511610071578063a22cb465146102e1578063b88d4fde146102fd578063c87b56dd14610319578063e985e9c514610349578063f2fde38b1461037957610116565b806370a082311461026b578063715018a61461029b5780638da5cb5b146102a557806395d89b41146102c357610116565b8063095ea7b3116100e9578063095ea7b3146101b557806323b872dd146101d157806337746cc5146101ed57806342842e0e1461021f5780636352211e1461023b57610116565b806301173a741461011b57806301ffc9a71461013757806306fdde0314610167578063081812fc14610185575b600080fd5b61013560048036038101906101309190611b23565b610395565b005b610151600480360381019061014c9190611ba8565b6104ff565b60405161015e9190611bf0565b60405180910390f35b61016f6105e1565b60405161017c9190611ca4565b60405180910390f35b61019f600480360381019061019a9190611cfc565b610673565b6040516101ac9190611d38565b60405180910390f35b6101cf60048036038101906101ca9190611d53565b6106b9565b005b6101eb60048036038101906101e69190611d93565b6107d0565b005b61020760048036038101906102029190611d53565b610830565b60405161021693929190611df5565b60405180910390f35b61023960048036038101906102349190611d93565b6108ff565b005b61025560048036038101906102509190611cfc565b61091f565b6040516102629190611d38565b60405180910390f35b61028560048036038101906102809190611b23565b6109d0565b6040516102929190611e33565b60405180910390f35b6102a3610a87565b005b6102ad610a9b565b6040516102ba9190611d38565b60405180910390f35b6102cb610ac4565b6040516102d89190611ca4565b60405180910390f35b6102fb60048036038101906102f69190611e7a565b610b56565b005b61031760048036038101906103129190611fef565b610b6c565b005b610333600480360381019061032e9190611cfc565b610bce565b6040516103409190611ca4565b60405180910390f35b610363600480360381019061035e9190612072565b610c36565b6040516103709190611bf0565b60405180910390f35b610393600480360381019061038e9190611b23565b610cca565b005b61039d610d4d565b8073ffffffffffffffffffffffffffffffffffffffff166103bc610a9b565b73ffffffffffffffffffffffffffffffffffffffff1603610412576040517f08c379a000000000000000000000000000000000000000000000000000000000815260040161040990612124565b60405180910390fd5b61041e81600754610dcb565b600860008273ffffffffffffffffffffffffffffffffffffffff1673ffffffffffffffffffffffffffffffffffffffff168152602001908152602001600020604051806060016040528060075481526020014281526020016040518060600160405280603d8152602001612dd3603d91398152509080600181540180825580915050600190039060005260206000209060030201600090919091909150600082015181600001556020820151816001015560408201518160020190816104e49190612350565b50505060016007546104f69190612451565b60078190555050565b60007f80ac58cd000000000000000000000000000000000000000000000000000000007bffffffffffffffffffffffffffffffffffffffffffffffffffffffff1916827bffffffffffffffffffffffffffffffffffffffffffffffffffffffff191614806105ca57507f5b5e139f000000000000000000000000000000000000000000000000000000007bffffffffffffffffffffffffffffffffffffffffffffffffffffffff1916827bffffffffffffffffffffffffffffffffffffffffffffffffffffffff1916145b806105da57506105d982610de9565b5b9050919050565b6060600180546105f090612173565b80601f016020809104026020016040519081016040528092919081815260200182805461061c90612173565b80156106695780601f1061063e57610100808354040283529160200191610669565b820191906000526020600020905b81548152906001019060200180831161064c57829003601f168201915b5050505050905090565b600061067e82610e53565b6005600083815260200190815260200160002060009054906101000a900473ffffffffffffffffffffffffffffffffffffffff169050919050565b60006106c48261091f565b90508073ffffffffffffffffffffffffffffffffffffffff168373ffffffffffffffffffffffffffffffffffffffff1603610734576040517f08c379a000000000000000000000000000000000000000000000000000000000815260040161072b90612519565b60405180910390fd5b8073ffffffffffffffffffffffffffffffffffffffff16610753610e9e565b73ffffffffffffffffffffffffffffffffffffffff16148061078257506107818161077c610e9e565b610c36565b5b6107c1576040517f08c379a00000000000000000000000000000000000000000000000000000000081526004016107b8906125ab565b60405180910390fd5b6107cb8383610ea6565b505050565b6107e16107db610e9e565b82610f5f565b610820576040517f08c379a00000000000000000000000000000000000000000000000000000000081526004016108179061263d565b60405180910390fd5b61082b838383610ff4565b505050565b6008602052816000526040600020818154811061084c57600080fd5b90600052602060002090600302016000915091505080600001549080600101549080600201805461087c90612173565b80601f01602080910402602001604051908101604052809291908181526020018280546108a890612173565b80156108f55780601f106108ca576101008083540402835291602001916108f5565b820191906000526020600020905b8154815290600101906020018083116108d857829003601f168201915b5050505050905083565b61091a83838360405180602001604052806000815250610b6c565b505050565b6000806003600084815260200190815260200160002060009054906101000a900473ffffffffffffffffffffffffffffffffffffffff169050600073ffffffffffffffffffffffffffffffffffffffff168173ffffffffffffffffffffffffffffffffffffffff16036109c7576040517f08c379a00000000000000000000000000000000000000000000000000000000081526004016109be906126a9565b60405180910390fd5b80915050919050565b60008073ffffffffffffffffffffffffffffffffffffffff168273ffffffffffffffffffffffffffffffffffffffff1603610a40576040517f08c379a0000000000000000000000000000000000000000000000000000000008152600401610a379061273b565b60405180910390fd5b600460008373ffffffffffffffffffffffffffffffffffffffff1673ffffffffffffffffffffffffffffffffffffffff168152602001908152602001600020549050919050565b610a8f610d4d565b610a99600061125a565b565b60008060009054906101000a900473ffffffffffffffffffffffffffffffffffffffff16905090565b606060028054610ad390612173565b80601f0160208091040260200160405190810160405280929190818152602001828054610aff90612173565b8015610b4c5780601f10610b2157610100808354040283529160200191610b4c565b820191906000526020600020905b815481529060010190602001808311610b2f57829003601f168201915b5050505050905090565b610b68610b61610e9e565b838361131e565b5050565b610b7d610b77610e9e565b83610f5f565b610bbc576040517f08c379a0000000000000000000000000000000000000000000000000000000008152600401610bb39061263d565b60405180910390fd5b610bc88484848461148a565b50505050565b6060610bd982610e53565b6000610be36114e6565b90506000815111610c035760405180602001604052806000815250610c2e565b80610c0d846114fd565b604051602001610c1e929190612797565b6040516020818303038152906040525b915050919050565b6000600660008473ffffffffffffffffffffffffffffffffffffffff1673ffffffffffffffffffffffffffffffffffffffff16815260200190815260200160002060008373ffffffffffffffffffffffffffffffffffffffff1673ffffffffffffffffffffffffffffffffffffffff16815260200190815260200160002060009054906101000a900460ff16905092915050565b610cd2610d4d565b600073ffffffffffffffffffffffffffffffffffffffff168173ffffffffffffffffffffffffffffffffffffffff1603610d41576040517f08c379a0000000000000000000000000000000000000000000000000000000008152600401610d389061282d565b60405180910390fd5b610d4a8161125a565b50565b610d55610e9e565b73ffffffffffffffffffffffffffffffffffffffff16610d73610a9b565b73ffffffffffffffffffffffffffffffffffffffff1614610dc9576040517f08c379a0000000000000000000000000000000000000000000000000000000008152600401610dc090612899565b60405180910390fd5b565b610de582826040518060200160405280600081525061165d565b5050565b60007f01ffc9a7000000000000000000000000000000000000000000000000000000007bffffffffffffffffffffffffffffffffffffffffffffffffffffffff1916827bffffffffffffffffffffffffffffffffffffffffffffffffffffffff1916149050919050565b610e5c816116b8565b610e9b576040517f08c379a0000000000000000000000000000000000000000000000000000000008152600401610e92906126a9565b60405180910390fd5b50565b600033905090565b816005600083815260200190815260200160002060006101000a81548173ffffffffffffffffffffffffffffffffffffffff021916908373ffffffffffffffffffffffffffffffffffffffff160217905550808273ffffffffffffffffffffffffffffffffffffffff16610f198361091f565b73ffffffffffffffffffffffffffffffffffffffff167f8c5be1e5ebec7d5bd14f71427d1e84f3dd0314c0f7b2291e5b200ac8c7c3b92560405160405180910390a45050565b600080610f6b8361091f565b90508073ffffffffffffffffffffffffffffffffffffffff168473ffffffffffffffffffffffffffffffffffffffff161480610fad5750610fac8185610c36565b5b80610feb57508373ffffffffffffffffffffffffffffffffffffffff16610fd384610673565b73ffffffffffffffffffffffffffffffffffffffff16145b91505092915050565b8273ffffffffffffffffffffffffffffffffffffffff166110148261091f565b73ffffffffffffffffffffffffffffffffffffffff161461106a576040517f08c379a00000000000000000000000000000000000000000000000000000000081526004016110619061292b565b60405180910390fd5b600073ffffffffffffffffffffffffffffffffffffffff168273ffffffffffffffffffffffffffffffffffffffff16036110d9576040517f08c379a00000000000000000000000000000000000000000000000000000000081526004016110d0906129bd565b60405180910390fd5b6110e4838383611724565b6110ef600082610ea6565b6001600460008573ffffffffffffffffffffffffffffffffffffffff1673ffffffffffffffffffffffffffffffffffffffff168152602001908152602001600020600082825461113f91906129dd565b925050819055506001600460008473ffffffffffffffffffffffffffffffffffffffff1673ffffffffffffffffffffffffffffffffffffffff16815260200190815260200160002060008282546111969190612451565b92505081905550816003600083815260200190815260200160002060006101000a81548173ffffffffffffffffffffffffffffffffffffffff021916908373ffffffffffffffffffffffffffffffffffffffff160217905550808273ffffffffffffffffffffffffffffffffffffffff168473ffffffffffffffffffffffffffffffffffffffff167fddf252ad1be2c89b69c2b068fc378daa952ba7f163c4a11628f55a4df523b3ef60405160405180910390a4611255838383611729565b505050565b60008060009054906101000a900473ffffffffffffffffffffffffffffffffffffffff169050816000806101000a81548173ffffffffffffffffffffffffffffffffffffffff021916908373ffffffffffffffffffffffffffffffffffffffff1602179055508173ffffffffffffffffffffffffffffffffffffffff168173ffffffffffffffffffffffffffffffffffffffff167f8be0079c531659141344cd1fd0a4f28419497f9722a3daafe3b4186f6b6457e060405160405180910390a35050565b8173ffffffffffffffffffffffffffffffffffffffff168373ffffffffffffffffffffffffffffffffffffffff160361138c576040517f08c379a000000000000000000000000000000000000000000000000000000000815260040161138390612a5d565b60405180910390fd5b80600660008573ffffffffffffffffffffffffffffffffffffffff1673ffffffffffffffffffffffffffffffffffffffff16815260200190815260200160002060008473ffffffffffffffffffffffffffffffffffffffff1673ffffffffffffffffffffffffffffffffffffffff16815260200190815260200160002060006101000a81548160ff0219169083151502179055508173ffffffffffffffffffffffffffffffffffffffff168373ffffffffffffffffffffffffffffffffffffffff167f17307eab39ab6107e8899845ad3d59bd9653f200f220920489ca2b5937696c318360405161147d9190611bf0565b60405180910390a3505050565b611495848484610ff4565b6114a18484848461172e565b6114e0576040517f08c379a00000000000000000000000000000000000000000000000000000000081526004016114d790612aef565b60405180910390fd5b50505050565b606060405180602001604052806000815250905090565b606060008203611544576040518060400160405280600181526020017f30000000000000000000000000000000000000000000000000000000000000008152509050611658565b600082905060005b6000821461157657808061155f90612b0f565b915050600a8261156f9190612b86565b915061154c565b60008167ffffffffffffffff81111561159257611591611ec4565b5b6040519080825280601f01601f1916602001820160405280156115c45781602001600182028036833780820191505090505b5090505b60008514611651576001826115dd91906129dd565b9150600a856115ec9190612bb7565b60306115f89190612451565b60f81b81838151811061160e5761160d612be8565b5b60200101907effffffffffffffffffffffffffffffffffffffffffffffffffffffffffffff1916908160001a905350600a8561164a9190612b86565b94506115c8565b8093505050505b919050565b61166783836118b5565b611674600084848461172e565b6116b3576040517f08c379a00000000000000000000000000000000000000000000000000000000081526004016116aa90612aef565b60405180910390fd5b505050565b60008073ffffffffffffffffffffffffffffffffffffffff166003600084815260200190815260200160002060009054906101000a900473ffffffffffffffffffffffffffffffffffffffff1673ffffffffffffffffffffffffffffffffffffffff1614159050919050565b505050565b505050565b600061174f8473ffffffffffffffffffffffffffffffffffffffff16611a8e565b156118a8578373ffffffffffffffffffffffffffffffffffffffff1663150b7a02611778610e9e565b8786866040518563ffffffff1660e01b815260040161179a9493929190612c6c565b6020604051808303816000875af19250505080156117d657506040513d601f19601f820116820180604052508101906117d39190612ccd565b60015b611858573d8060008114611806576040519150601f19603f3d011682016040523d82523d6000602084013e61180b565b606091505b506000815103611850576040517f08c379a000000000000000000000000000000000000000000000000000000000815260040161184790612aef565b60405180910390fd5b805181602001fd5b63150b7a0260e01b7bffffffffffffffffffffffffffffffffffffffffffffffffffffffff1916817bffffffffffffffffffffffffffffffffffffffffffffffffffffffff1916149150506118ad565b600190505b949350505050565b600073ffffffffffffffffffffffffffffffffffffffff168273ffffffffffffffffffffffffffffffffffffffff1603611924576040517f08c379a000000000000000000000000000000000000000000000000000000000815260040161191b90612d46565b60405180910390fd5b61192d816116b8565b1561196d576040517f08c379a000000000000000000000000000000000000000000000000000000000815260040161196490612db2565b60405180910390fd5b61197960008383611724565b6001600460008473ffffffffffffffffffffffffffffffffffffffff1673ffffffffffffffffffffffffffffffffffffffff16815260200190815260200160002060008282546119c99190612451565b92505081905550816003600083815260200190815260200160002060006101000a81548173ffffffffffffffffffffffffffffffffffffffff021916908373ffffffffffffffffffffffffffffffffffffffff160217905550808273ffffffffffffffffffffffffffffffffffffffff16600073ffffffffffffffffffffffffffffffffffffffff167fddf252ad1be2c89b69c2b068fc378daa952ba7f163c4a11628f55a4df523b3ef60405160405180910390a4611a8a60008383611729565b5050565b6000808273ffffffffffffffffffffffffffffffffffffffff163b119050919050565b6000604051905090565b600080fd5b600080fd5b600073ffffffffffffffffffffffffffffffffffffffff82169050919050565b6000611af082611ac5565b9050919050565b611b0081611ae5565b8114611b0b57600080fd5b50565b600081359050611b1d81611af7565b92915050565b600060208284031215611b3957611b38611abb565b5b6000611b4784828501611b0e565b91505092915050565b60007fffffffff0000000000000000000000000000000000000000000000000000000082169050919050565b611b8581611b50565b8114611b9057600080fd5b50565b600081359050611ba281611b7c565b92915050565b600060208284031215611bbe57611bbd611abb565b5b6000611bcc84828501611b93565b91505092915050565b60008115159050919050565b611bea81611bd5565b82525050565b6000602082019050611c056000830184611be1565b92915050565b600081519050919050565b600082825260208201905092915050565b60005b83811015611c45578082015181840152602081019050611c2a565b83811115611c54576000848401525b50505050565b6000601f19601f8301169050919050565b6000611c7682611c0b565b611c808185611c16565b9350611c90818560208601611c27565b611c9981611c5a565b840191505092915050565b60006020820190508181036000830152611cbe8184611c6b565b905092915050565b6000819050919050565b611cd981611cc6565b8114611ce457600080fd5b50565b600081359050611cf681611cd0565b92915050565b600060208284031215611d1257611d11611abb565b5b6000611d2084828501611ce7565b91505092915050565b611d3281611ae5565b82525050565b6000602082019050611d4d6000830184611d29565b92915050565b60008060408385031215611d6a57611d69611abb565b5b6000611d7885828601611b0e565b9250506020611d8985828601611ce7565b9150509250929050565b600080600060608486031215611dac57611dab611abb565b5b6000611dba86828701611b0e565b9350506020611dcb86828701611b0e565b9250506040611ddc86828701611ce7565b9150509250925092565b611def81611cc6565b82525050565b6000606082019050611e0a6000830186611de6565b611e176020830185611de6565b8181036040830152611e298184611c6b565b9050949350505050565b6000602082019050611e486000830184611de6565b92915050565b611e5781611bd5565b8114611e6257600080fd5b50565b600081359050611e7481611e4e565b92915050565b60008060408385031215611e9157611e90611abb565b5b6000611e9f85828601611b0e565b9250506020611eb085828601611e65565b9150509250929050565b600080fd5b600080fd5b7f4e487b7100000000000000000000000000000000000000000000000000000000600052604160045260246000fd5b611efc82611c5a565b810181811067ffffffffffffffff82111715611f1b57611f1a611ec4565b5b80604052505050565b6000611f2e611ab1565b9050611f3a8282611ef3565b919050565b600067ffffffffffffffff821115611f5a57611f59611ec4565b5b611f6382611c5a565b9050602081019050919050565b82818337600083830152505050565b6000611f92611f8d84611f3f565b611f24565b905082815260208101848484011115611fae57611fad611ebf565b5b611fb9848285611f70565b509392505050565b600082601f830112611fd657611fd5611eba565b5b8135611fe6848260208601611f7f565b91505092915050565b6000806000806080858703121561200957612008611abb565b5b600061201787828801611b0e565b945050602061202887828801611b0e565b935050604061203987828801611ce7565b925050606085013567ffffffffffffffff81111561205a57612059611ac0565b5b61206687828801611fc1565b91505092959194509250565b6000806040838503121561208957612088611abb565b5b600061209785828601611b0e565b92505060206120a885828601611b0e565b9150509250929050565b7f526563697069656e742063616e6e6f7420626520746865206f776e6572206f6660008201527f2074686520636f6e747261637400000000000000000000000000000000000000602082015250565b600061210e602d83611c16565b9150612119826120b2565b604082019050919050565b6000602082019050818103600083015261213d81612101565b9050919050565b7f4e487b7100000000000000000000000000000000000000000000000000000000600052602260045260246000fd5b6000600282049050600182168061218b57607f821691505b60208210810361219e5761219d612144565b5b50919050565b60008190508160005260206000209050919050565b60006020601f8301049050919050565b600082821b905092915050565b6000600883026122067fffffffffffffffffffffffffffffffffffffffffffffffffffffffffffffffff826121c9565b61221086836121c9565b95508019841693508086168417925050509392505050565b6000819050919050565b600061224d61224861224384611cc6565b612228565b611cc6565b9050919050565b6000819050919050565b61226783612232565b61227b61227382612254565b8484546121d6565b825550505050565b600090565b612290612283565b61229b81848461225e565b505050565b5b818110156122bf576122b4600082612288565b6001810190506122a1565b5050565b601f821115612304576122d5816121a4565b6122de846121b9565b810160208510156122ed578190505b6123016122f9856121b9565b8301826122a0565b50505b505050565b600082821c905092915050565b600061232760001984600802612309565b1980831691505092915050565b60006123408383612316565b9150826002028217905092915050565b61235982611c0b565b67ffffffffffffffff81111561237257612371611ec4565b5b61237c8254612173565b6123878282856122c3565b600060209050601f8311600181146123ba57600084156123a8578287015190505b6123b28582612334565b86555061241a565b601f1984166123c8866121a4565b60005b828110156123f0578489015182556001820191506020850194506020810190506123cb565b8683101561240d5784890151612409601f891682612316565b8355505b6001600288020188555050505b505050505050565b7f4e487b7100000000000000000000000000000000000000000000000000000000600052601160045260246000fd5b600061245c82611cc6565b915061246783611cc6565b9250827fffffffffffffffffffffffffffffffffffffffffffffffffffffffffffffffff0382111561249c5761249b612422565b5b828201905092915050565b7f4552433732313a20617070726f76616c20746f2063757272656e74206f776e6560008201527f7200000000000000000000000000000000000000000000000000000000000000602082015250565b6000612503602183611c16565b915061250e826124a7565b604082019050919050565b60006020820190508181036000830152612532816124f6565b9050919050565b7f4552433732313a20617070726f76652063616c6c6572206973206e6f7420746f60008201527f6b656e206f776e6572206e6f7220617070726f76656420666f7220616c6c0000602082015250565b6000612595603e83611c16565b91506125a082612539565b604082019050919050565b600060208201905081810360008301526125c481612588565b9050919050565b7f4552433732313a2063616c6c6572206973206e6f7420746f6b656e206f776e6560008201527f72206e6f7220617070726f766564000000000000000000000000000000000000602082015250565b6000612627602e83611c16565b9150612632826125cb565b604082019050919050565b600060208201905081810360008301526126568161261a565b9050919050565b7f4552433732313a20696e76616c696420746f6b656e2049440000000000000000600082015250565b6000612693601883611c16565b915061269e8261265d565b602082019050919050565b600060208201905081810360008301526126c281612686565b9050919050565b7f4552433732313a2061646472657373207a65726f206973206e6f74206120766160008201527f6c6964206f776e65720000000000000000000000000000000000000000000000602082015250565b6000612725602983611c16565b9150612730826126c9565b604082019050919050565b6000602082019050818103600083015261275481612718565b9050919050565b600081905092915050565b600061277182611c0b565b61277b818561275b565b935061278b818560208601611c27565b80840191505092915050565b60006127a38285612766565b91506127af8284612766565b91508190509392505050565b7f4f776e61626c653a206e6577206f776e657220697320746865207a65726f206160008201527f6464726573730000000000000000000000000000000000000000000000000000602082015250565b6000612817602683611c16565b9150612822826127bb565b604082019050919050565b600060208201905081810360008301526128468161280a565b9050919050565b7f4f776e61626c653a2063616c6c6572206973206e6f7420746865206f776e6572600082015250565b6000612883602083611c16565b915061288e8261284d565b602082019050919050565b600060208201905081810360008301526128b281612876565b9050919050565b7f4552433732313a207472616e736665722066726f6d20696e636f72726563742060008201527f6f776e6572000000000000000000000000000000000000000000000000000000602082015250565b6000612915602583611c16565b9150612920826128b9565b604082019050919050565b6000602082019050818103600083015261294481612908565b9050919050565b7f4552433732313a207472616e7366657220746f20746865207a65726f2061646460008201527f7265737300000000000000000000000000000000000000000000000000000000602082015250565b60006129a7602483611c16565b91506129b28261294b565b604082019050919050565b600060208201905081810360008301526129d68161299a565b9050919050565b60006129e882611cc6565b91506129f383611cc6565b925082821015612a0657612a05612422565b5b828203905092915050565b7f4552433732313a20617070726f766520746f2063616c6c657200000000000000600082015250565b6000612a47601983611c16565b9150612a5282612a11565b602082019050919050565b60006020820190508181036000830152612a7681612a3a565b9050919050565b7f4552433732313a207472616e7366657220746f206e6f6e20455243373231526560008201527f63656976657220696d706c656d656e7465720000000000000000000000000000602082015250565b6000612ad9603283611c16565b9150612ae482612a7d565b604082019050919050565b60006020820190508181036000830152612b0881612acc565b9050919050565b6000612b1a82611cc6565b91507fffffffffffffffffffffffffffffffffffffffffffffffffffffffffffffffff8203612b4c57612b4b612422565b5b600182019050919050565b7f4e487b7100000000000000000000000000000000000000000000000000000000600052601260045260246000fd5b6000612b9182611cc6565b9150612b9c83611cc6565b925082612bac57612bab612b57565b5b828204905092915050565b6000612bc282611cc6565b9150612bcd83611cc6565b925082612bdd57612bdc612b57565b5b828206905092915050565b7f4e487b7100000000000000000000000000000000000000000000000000000000600052603260045260246000fd5b600081519050919050565b600082825260208201905092915050565b6000612c3e82612c17565b612c488185612c22565b9350612c58818560208601611c27565b612c6181611c5a565b840191505092915050565b6000608082019050612c816000830187611d29565b612c8e6020830186611d29565b612c9b6040830185611de6565b8181036060830152612cad8184612c33565b905095945050505050565b600081519050612cc781611b7c565b92915050565b600060208284031215612ce357612ce2611abb565b5b6000612cf184828501612cb8565b91505092915050565b7f4552433732313a206d696e7420746f20746865207a65726f2061646472657373600082015250565b6000612d30602083611c16565b9150612d3b82612cfa565b602082019050919050565b60006020820190508181036000830152612d5f81612d23565b9050919050565b7f4552433732313a20746f6b656e20616c7265616479206d696e74656400000000600082015250565b6000612d9c601c83611c16565b9150612da782612d66565b602082019050919050565b60006020820190508181036000830152612dcb81612d8f565b905091905056fe68747470733a2f2f6d69726f2e6d656469756d2e636f6d2f6d61782f313132302f312a6b5f45593764634c5942355a356b387a684d637636672e706e67a26469706673582212208f1819c323b0f6eb1dc6fafcf62cb205152b46f82c1772463ea666f65eb57d9a64736f6c634300080f0033",
  "immutableReferences": {},
  "source": "// SPDX-License-Identifier:UNLICENSED\npragma solidity ^0.8.0;\n\nimport \"@openzeppelin/contracts/access/Ownable.sol\";\nimport \"@openzeppelin/contracts/token/ERC721/ERC721.sol\";\n\ncontract Hellonft is Ownable, ERC721(\"HelloNft\", \"HNFT\"){\nuint tokenId;\nmapping(address=>tokenMetaData[]) public ownershipRecord;\nstruct tokenMetaData{\nuint tokenId;\nuint timeStamp;\nstring tokenURI;\n}\nfunction mintToken(address recipient) onlyOwner public {\nrequire(owner()!=recipient, \"Recipient cannot be the owner of the contract\");\n_safeMint(recipient, tokenId);\nownershipRecord[recipient].push(tokenMetaData(tokenId, block.timestamp, \"https://miro.medium.com/max/1120/1*k_EY7dcLYB5Z5k8zhMcv6g.png\"));\ntokenId = tokenId + 1;\n}\n}",
  "sourcePath": "/Users/leonhardthyssen/Desktop/Neuer Ordner mit Objekten/BCT/blockprop/contracts/Hellonft.sol",
  "compiler": {
    "name": "solc",
    "version": "0.8.15+commit.e14f2714.Emscripten.clang"
  },
  "schemaVersion": "3.4.8",
  "updatedAt": "2022-07-03T17:00:57.804Z",
  "devdoc": {
    "kind": "dev",
    "methods": {
      "approve(address,uint256)": {
        "details": "See {IERC721-approve}."
      },
      "balanceOf(address)": {
        "details": "See {IERC721-balanceOf}."
      },
      "getApproved(uint256)": {
        "details": "See {IERC721-getApproved}."
      },
      "isApprovedForAll(address,address)": {
        "details": "See {IERC721-isApprovedForAll}."
      },
      "name()": {
        "details": "See {IERC721Metadata-name}."
      },
      "owner()": {
        "details": "Returns the address of the current owner."
      },
      "ownerOf(uint256)": {
        "details": "See {IERC721-ownerOf}."
      },
      "renounceOwnership()": {
        "details": "Leaves the contract without owner. It will not be possible to call `onlyOwner` functions anymore. Can only be called by the current owner. NOTE: Renouncing ownership will leave the contract without an owner, thereby removing any functionality that is only available to the owner."
      },
      "safeTransferFrom(address,address,uint256)": {
        "details": "See {IERC721-safeTransferFrom}."
      },
      "safeTransferFrom(address,address,uint256,bytes)": {
        "details": "See {IERC721-safeTransferFrom}."
      },
      "setApprovalForAll(address,bool)": {
        "details": "See {IERC721-setApprovalForAll}."
      },
      "supportsInterface(bytes4)": {
        "details": "See {IERC165-supportsInterface}."
      },
      "symbol()": {
        "details": "See {IERC721Metadata-symbol}."
      },
      "tokenURI(uint256)": {
        "details": "See {IERC721Metadata-tokenURI}."
      },
      "transferFrom(address,address,uint256)": {
        "details": "See {IERC721-transferFrom}."
      },
      "transferOwnership(address)": {
        "details": "Transfers ownership of the contract to a new account (`newOwner`). Can only be called by the current owner."
      }
    },
    "version": 1
  },
  "userdoc": {
    "kind": "user",
    "methods": {},
    "version": 1
  }
}